:100000000C94CD050C9414060C9414060C94140650
:100010000C9414060C9414060C9414060C941406F8
:100020000C9414060C9414060C9476300C944A31FB
:100030000C9447260C9414060C9414060C94140685
:100040000C9414060C9414060C9414060C941406C8
:100050000C9414060C9492260C9414060C9414061A
:100060000C9414060C9414060C9414060C941406A8
:100070000C9414060C9414060C9414060C94140698
:100080000C9414060C9414060C9414060C94140688
:100090000C9414060C9414060C9414060C94140678
:1000A0000C9414060C9414060C94140629001400E5
:1000B0001A000800150017001C0018000C001200A0
:1000C00013002A002B0004001600070009000A0094
:1000D0000B000D000E000F0000002800E1001D00C5
:1000E0001B00060019000500110010003600520028
:1000F00000003700E000E300E2002C0000000251A5
:10010000000001515000510000004F001E001F0070
:1001100020002100220023002400250026002700C3
:1001200046004C00AE00AC00AB00A8000000000090
:10013000000000002D002E0000000000E100AA00D9
:10014000A900BE00BD0000000000000049004B00F7
:100150000000E500035304531550000000000000A8
:10016000000001004A004E0000004D003A003B0034
:100170003C003D003E003F00400041004200430083
:1001800044004500F400F500F600F700F800000018
:100190000000FD00FE00FF0000000000E100000084
:1001A0000000B20000000000FB00F900FC00F000BD
:1001B00000000000E0000000E2000000000001007C
:1001C0000000FA00F200F1000000F30014001A0031
:1001D0000800150000003C003D00000018000C0065
:1001E0001200130000000000070009000000A80032
:1001F000000000000D000E0000002800E1001D00BE
:100200001B00000029003500000006001900520004
:1002100000000353E000E300E200170000001C00B0
:10022000000000005000510000004F0006001900BF
:100230001D001B0000000000000000000600190067
:100240001D001B002B00000000000000000000004B
:10025000000000000000000000002800E100000095
:1002600000000000290035000000000000005200DE
:1002700000000453E000E300E2002C000000E60070
:10028000000000005000510000004F00005C000022
:10029000000000000000000000000000000000005E
:1002A0000000145C00000000C45CC65CC85CCA5C52
:1002B000CC5C00000000000000000000C35CC55CD6
:1002C000C75CC95CCB5CCD5C000000000000000096
:1002D00000000553000000000100000000000000C5
:1002E00000000000000000000000000044454255EE
:1002F000473A2064697361626C65642E0A00444564
:100300004255473A20656E61626C65642E0A000AA8
:10031000002530313662003A200025303258000A7C
:10032000722F632030313233343536373839414219
:10033000434445460A007267626C696768742074BA
:10034000696D65722064697361626C652E0A007262
:1003500067626C696768742074696D657220656E88
:1003600061626C65642E0A007267626C696768740A
:100370002073657420687376205B4E4F454550525C
:100380004F4D5D3A2025752C25752C25750A007278
:1003900067626C696768742073657420687376207F
:1003A0005B454550524F4D5D3A2025752C25752CE7
:1003B00025750A007267626C6967687420726169EA
:1003C0006E626F7720736574206873763A202564B7
:1003D0002C25642C25642C25750A007267626C69D3
:1003E0006768742064697361626C65205B4E4F4579
:1003F0004550524F4D5D3A207267626C6967687470
:100400005F636F6E6669672E656E61626C65203D25
:100410002025750A007267626C69676874206469D8
:100420007361626C65205B454550524F4D5D3A20CB
:100430007267626C696768745F636F6E6669672E66
:10044000656E61626C65203D2025750A00726762E9
:100450006C6967687420656E61626C65205B4E4FE5
:10046000454550524F4D5D3A207267626C6967682E
:10047000745F636F6E6669672E656E61626C65207E
:100480003D2025750A007267626C69676874206593
:100490006E61626C65205B454550524F4D5D3A2060
:1004A0007267626C696768745F636F6E6669672EF6
:1004B000656E61626C65203D2025750A0072676279
:1004C0006C6967687420746F67676C65205B45456D
:1004D00050524F4D5D3A207267626C696768745F75
:1004E000636F6E6669672E656E61626C65203D2084
:1004F00025750A007267626C69676874206D6F64A5
:1005000065205B4E4F454550524F4D5D3A20257555
:100510000A007267626C69676874206D6F64652099
:100520005B454550524F4D5D3A2025750A00726774
:10053000626C696768745F696E6974207267626C67
:10054000696768745F636F6E6669672E6D6F646557
:10055000203D20302E2057726974652064656661E5
:10056000756C742076616C75657320746F204545D9
:1005700050524F4D2E0A007267626C696768745F53
:10058000696E6974206565636F6E6669672069735B
:10059000206E6F7420656E61626C65642E0A007255
:1005A00067626C696768745F696E697420737461EF
:1005B0007274210A007267626C696768745F696EA1
:1005C00069742063616C6C65642E0A007267626CEA
:1005D000696768745F636F6E6669672E73706565BF
:1005E00064203D2025640A007267626C6967687444
:1005F0005F636F6E6669672E76616C203D202564AF
:100600000A007267626C696768745F636F6E66691F
:10061000672E736174203D2025640A007267626C46
:10062000696768745F636F6E6669672E68756520B9
:100630003D2025640A007267686C696768745F63AF
:100640006F6E6669672E6D6F6465203D2025640AB4
:10065000007267626C696768745F636F6E66696772
:100660002E656E61626C65203D2025640A0072670C
:10067000626C696768745F636F6E66696720454581
:1006800050524F4D3A0A0032190A00047F3F1F644E
:100690003214643214783C1E1E140A0522232526C7
:1006A00028292A2C2D2F3032333536383A3B3D3E1F
:1006B0004042434547494A4C4E5051535557595A69
:1006C0005C5E6062646668696B6D6F717375777983
:1006D0007B7D7F81838587898A8C8E909294969882
:1006E0009A9C9E9FA1A3A5A7A8AAACAEAFB1B3B494
:1006F000B6B8B9BBBCBEBFC1C2C3C5C6C7C9CACBE9
:10070000CCCDCED0D1D2D2D3D4D5D6D7D7D8D9D9B3
:10071000DADADBDBDBDCDCDCDCDCDDDDDDDDDCDC1C
:10072000DCDCDCDBDBDBDADAD9D9D8D7D7D6D5D439
:10073000D3D2D2D1D0CECDCCCBCAC9C7C6C5C3C205
:10074000C1BFBEBCBBB9B8B6B4B3B1AFAEACAAA85A
:10075000A7A5A3A19F9E9C9A98969492908E8C8A0E
:1007600089878583817F7D7B79777573716F6D6BE9
:100770006968666462605E5C5A5957555351504EC1
:100780004C4A4947454342403E3D3B3A3836353373
:1007900032302F2D2C2A292826252322FFAA7F55E7
:1007A00040000101010101010101010202020202F6
:1007B0000202020203030303030303030404040409
:1007C00004040405050505050606060606070707D1
:1007D000070708080808090909090A0A0A0B0B0B88
:1007E0000C0C0C0D0D0D0E0E0E0F0F0F1010111125
:1007F00011121213131414151516161717181819A9
:10080000191A1A1B1B1C1D1D1E1E1F20202122220F
:10081000232424252626272829292A2B2C2D2D2E52
:100820002F30313232333435363738393A3B3C3D6C
:100830003E3F404142434445464748494A4C4D4E5D
:100840004F50515354555658595A5B5D5E5F616223
:1008500064656668696B6C6D6F7072737577787AB2
:100860007B7D7E8082838587888A8C8E8F9193950D
:1008700096989A9C9EA0A2A3A5A7A9ABADAFB1B331
:10088000B5B7BABCBEC0C2C4C6C9CBCDCFD1D4D611
:10089000D8DBDDDFE2E4E7E9EBEEF0F3F5F8FAFDB3
:1008A000FF556E69636F646520696E707574206DA5
:1008B0006F64652073657420746F3A2025750A0093
:1008C000556E69636F646520696E707574206D6F15
:1008D000646520696E697420746F3A2025750A007A
:1008E0000A002530325820006B6579626F617264AE
:1008F0005F7265706F72743A20000A0025303258BA
:10090000006B6579626F6172645F7365745F6C65BB
:10091000643A200064656C5F6B65795F6269743A64
:100920002063616E27742064656C3A20253032584C
:100930000A006164645F6B65795F6269743A206381
:10094000616E2774206164643A20253032580A00B1
:10095000646F6E652E0A00626F6F746D6167696304
:10096000207363616E3A202E2E2E2000290A002566
:1009700075002F002575005D2800256400200025E6
:100980006400200025640020002564007C002530E0
:100990003258006D6F7573656B6579205B62746E9C
:1009A0007C782079207620685D287265702F6163DD
:1009B0006C293A205B005B735D004B6579626F6167
:1009C00072642073746172742E0A005B575D005B61
:1009D000535D005B525D005B445D005B435D000462
:1009E00003300000000C0342004D0034003300418E
:1009F00000000016034B00500052006500700075A7
:100A00000062006C0069006300000004030904092F
:100A1000025B00030100A0FA0904000001030101C8
:100A2000000921110100012240000705810308008F
:100A30000109040100010300000009211101000166
:100A400022BC000705820320000109040200020302
:100A50000000000921110100012222000705830383
:100A6000200001070503032000011201100100000E
:100A70000008EDFE00000100010203010631FF093C
:100A800074A1010975150026FF00952075088102E3
:100A90000976150026FF00952075089102C0050112
:100AA0000902A10185020901A10005091901290511
:100AB00015002501950575018102950175038101D8
:100AC0000501093009311581257F950275088106D8
:100AD00009381581257F950175088106050C0A38AE
:100AE000021581257F950175088106C0C0050109A1
:100AF00080A101850319012AB700150126B70095C9
:100B00000175108100C0050C0901A10185041901BE
:100B10002AA002150126A002950175108100C005CA
:100B2000010906A1018505050719E029E71500253A
:100B3000019508750181020507190029EF150025A7
:100B40000195F075018102050819012905950575C2
:100B5000019102950175039101C005010906A101EA
:100B6000050719E029E7150025019508750181029F
:100B70009501750881010507190029FF150026FF59
:100B80000095067508810005081901290595057568
:100B9000019102950175039101C011241FBECFEF91
:100BA000DAE0DEBFCDBF04B603FE27C0809142036A
:100BB00090914303A0914403B09145038730904B3B
:100BC000A740B04BD1F4109242031092430310920D
:100BD00044031092450314BE84B7877F84BF0FB6C9
:100BE000F894A895809160008861809360001092CD
:100BF00060000FBEE0E0F8E3099511E0A0E0B1E08D
:100C0000EEE9FBE602C005900D92AE3DB107D9F7C3
:100C100023E0AEEDB1E001C01D92A234B207E1F7CE
:100C20000E94A72D0C9491350C940000FF93EF9334
:100C3000E091DE01F091DF01309709F00995EF9125
:100C4000FF910895FC018591803011F0EFDFFBCF1B
:100C50000895FF27E0E230E247FF0CC0419597FF7F
:100C600009C0EDE26095709580959095611D711DAC
:100C7000811D911D27FF02C0219530E350E2AA2774
:100C8000660F771F881F991FAA1FA41710F0A41BB7
:100C900063955A95A9F7AA3008F0A95FA05DAF93B4
:100CA000F395611571058105910541F7ED3211F458
:100CB000EF93F395F21718F43F93F395FBCF8F91D1
:100CC000B5DFFA95E1F70895E991F99185918030C2
:100CD00021F0853219F0AADFF9CF089520E0E894D9
:100CE00055915532C1F3503311F4689455915A33EC
:100CF00048F4505390F3220F022E220F220F200DA2
:100D0000250FF4CF0EF4219589919991533619F35B
:100D1000533729F1533559F1BC0188279927E894B5
:100D20005C3621F48991999168945591543639F43F
:100D300046EF7EF077FF0DC08FEF9FEF0AC055376B
:100D40004AE039F0583540E121F0523642E009F0EE
:100D50000895FF93EF937DDFEF91FF91B7CFFF935E
:100D6000EF93FC0181918030B9F360DFFBCFFF93FB
:100D7000EF9368DFF1CFDF93CF93CDB7DEB7259642
:100D8000A3DFCF91DF910895CF93DF939C013A9534
:100D900021153F4168F5EC01CC27D170DC01AA2771
:100DA000B270AC01442754709C012227387094FF24
:100DB00011C080E1CD2B09F480E0AB2B09F08062FB
:100DC000452B09F08064232B09F08068FB01DF913B
:100DD000CF91099481E0CD2B09F480E0AB2B09F091
:100DE0008260452B09F08460232B81F38860EECF6D
:100DF000DF91CF910895CF93DF93EC01805E91094D
:100E0000089720F064EB7DE1209711F46EE47BE11C
:100E1000CE010E94C4068C2FDF91CF910C94F71A5B
:100E2000CF93DF93EC010E94381BCE01805E9109C5
:100E3000089720F06BEB7DE1209711F465E57BE1ED
:100E4000CE01DF91CF910C94C406CF93DF93EC01D8
:100E50000E94FB06CE01DF91CF910C94100781E038
:100E6000089581E008950C94310708950C94350796
:100E70001F93CF93DF9300D000D00F92CDB7DEB792
:100E800049835A836B833091380289819A81311169
:100E90001DC06623B9F02223A9F00E94C522182F95
:100EA000682F89819A810E94712269817A81812FBC
:100EB0000F900F900F900F900F90DF91CF911F9197
:100EC0000C941A080E949D22182FEFCF0E94C52271
:100ED00069817A81EDCFFC01262F408151816281A9
:100EE000738184810C943807CF93DF93EC0160E029
:100EF0000E946B07BE01DF91CF910C9436070E94D0
:100F00004524811102C00E94F3240E94C8150C944C
:100F1000260A0C94290A282F2F7041F0822F90E086
:100F20002A3010F44D9608950697089587E290E0D0
:100F3000089508950C94990781E008950C949C07F6
:100F4000CF93C82F0E949A078C2FCF910C949E07A5
:100F500008950E94D81D0E94A8072FEF84E39CE00B
:100F6000215080409040E1F700C000000C94B6266C
:100F70000F931F93CF93DF93EC0161E00E946B0707
:100F80008C01BE010E943307882371F1BE01C801A4
:100F90000E946716882341F1BE01C8010E940E1706
:100FA000882311F1BE01C8010E9460178823E1F077
:100FB000BE01C8010E9483188823B1F0BE01C80198
:100FC0000E941715882381F08A81882341F101301E
:100FD0008CE5180779F00F3D8CE51807E9F001154D
:100FE0001C45E9F40E94A90780E0DF91CF911F9191
:100FF0000F9108959091BD02892F8E7F90FF81609F
:101000008093BD0280FF05C08EEF92E00E94220611
:10101000EBCF8CEE92E0FACF0E94F324E5CFCE0125
:10102000DF91CF911F910F910C942F0790E080E0FA
:1010300008950895972F70E02CE0929F600D711D28
:101040001124FB0190E3899FE00DF11D1124EE0FA7
:10105000FF1FE455FF4F859194910895FC01EE0F19
:10106000FF1FE15FFC4F859194910895CF93DF932B
:101070000E941A080E944B09EC01811520E5920795
:1010800008F042C0811530E4930708F0BDC0883EE7
:10109000910528F5803E910508F09DC0883A91059C
:1010A00088F4853A910508F08FC08130910509F4E4
:1010B00092C0009709F48FC0049708F08CC0D0E06C
:1010C000C0E089C08F3B910508F489C0805C91091C
:1010D000C03CD105A0F30E942E08EC017CC0811514
:1010E000904250F4C11581E0D80708F074C0C03FA9
:1010F000D10528F3D0656FC0C11590E3D90708F07A
:1011000079C0CE019F70E7CF811525E5920758F58C
:10111000811534E5930708F0A6C0811542E59407D0
:1011200050F4C11581E5D80708F471C0DC2FCC2735
:10113000C16FD06A50C0982F969596959E012370E6
:101140003327C115D34508F07FC0C1E0D0E002C00D
:10115000CC0FDD1F2A95E2F720E2929FC0011124F7
:10116000C82BD92B6FC0C11589E5D807A8F4C115C4
:1011700098E5D90708F07CC0C11526E5D20708F02C
:101180009ECF8C2F0E94E209C82FD0E0DC2FCC2705
:10119000CC27DF71D0621FC0C1153AE5D30708F430
:1011A0006CC0CE0190568115904208F088CF8D2FEB
:1011B0008F710E94E20990E0982F882788279F71FD
:1011C0009C012C2BE901E6CFC55AD0E0C05ADE4F76
:1011D000C881D0E0D064CE01DF91CF910895C85A84
:1011E000D0E0CC0FDD1FCE5CDE4F0990D881C02D42
:1011F000D464F1CFCE019927D3FF03C0EC01D86CA2
:10120000EACFEC01D06CE7CFDF70D06AE4CFCE013B
:10121000E4E096958795EA95E1F783702C2F269563
:101220002695237090E2299F90011124382B8C2F52
:101230008370C1E0D0E002C0CC0FDD1F8A95E2F7D9
:10124000C22BD32BDC68C7CFC1E0D0E002C0CC0FEB
:10125000DD1F2A95E2F730E2939FC0011124C82BCD
:10126000D92BDA68B8CFD82FCC27C46FD06AB3CFC8
:10127000DC2FCC27C06FD06AAECF8C2F8F700E942E
:10128000E20934E0D695C7953A95E1F7CF709C2FE7
:10129000EC01D069A0CF82389105B1F1B0F481336F
:1012A000910509F475C048F48932910509F469C0C3
:1012B0008A32910509F473C008958533910509F4C4
:1012C00059C08933910501F10895833E9105A9F133
:1012D00038F4803E9105F9F0823E910549F1089578
:1012E000863E9105A9F1873E9105C9F1843E91059D
:1012F00019F52091300321FF1FC080912F0384FD39
:1013000014C087EE90E0089520912F032370A1F080
:1013100080EE90E0089520912F0320FD47C030918A
:10132000300330FF09C024FF44C090E080E004C0D7
:1013300020912F0322FDF7CF089520912F0322FD46
:101340003BC03091300330FDE3CF24FFF5CFEDCF2C
:1013500020912F0323FFF0CF24FDE7CFD2CF2091A0
:101360002F0323FD2CC03091300331FFEECF84EEEC
:1013700090E0089520912F0325FFDECF89E290E0D1
:10138000089520912F0325FFD7CF85E390E008959E
:1013900020912F0326FFD0CF8AE290E0089520917C
:1013A0002F0326FFC9CF81E390E0089589E390E001
:1013B000089583EE90E0089582EE90E0089586EE21
:1013C00090E0089590912F0392FF06C0282F287176
:1013D0002830F9F4877F846093FF06C0282F287196
:1013E0002831F1F4877E84612091300320FF06C00C
:1013F000382F38713830D9F4877F816021FF06C0DB
:10140000282F28712831D1F4877E816194FD877E51
:101410000895282F24712430F9F68B7F8860DCCF63
:10142000282F2471243101F78B7E8861DDCF382F7E
:101430003171313019F78E7F8860E0CF282F21710C
:10144000213121F78E7E8861E1CF08950C94250A21
:1014500008950C94280AE82FF0E0EE0FFF1FE550E6
:10146000FD4F808191810895CF92DF92EF92FF929C
:101470000F931F93CF93DF938FE193E00E94220697
:101480008BEFE82E82E0F82ED0E0C0E09AE1C92E82
:1014900093E0D92E01E113E0DF93CF93DF92CF9257
:1014A0000E94BB0687E193E00E942206F70181912A
:1014B00091917F010E9438249F938F931F930F93E4
:1014C0000E94BB068FE093E00E94220621968DB712
:1014D0009EB708960FB6F8949EBF0FBE8DBFC4305E
:1014E000D105D1F6DF91CF911F910F91FF90EF9031
:1014F000DF90CF90089580EA8A95F1F70895F894E7
:10150000E82FE295EF70F0E031A1282F2F7081E0F5
:1015100090E001C0880F2A95EAF7982F90959323C1
:1015200091A392A1892B82A378940895CF93DF93FE
:1015300081E90E947F0A84EF0E947F0A81EF0E9466
:101540007F0A80EF0E947F0AC3E6D1E089910E9462
:101550007F0A81E0CF36D807C9F71092F4021092C3
:10156000F3021092FC021092FB021092F60210920B
:10157000F5021092FE021092FD021092F8021092F3
:10158000F702109200031092FF021092FA021092DA
:10159000F902109202031092010384E00E94520BA0
:1015A000DF91CF910C947F07AF92BF92DF92EF92C1
:1015B000FF920F931F93CF93DF93CFE6D1E003EF1A
:1015C00012E0D12CEE24E394F12C8991F894E82FC9
:1015D000E295EF70F0E021A18F70A70102C0440FE7
:1015E000551F8A95E2F7CA01922F982B91A392A1D9
:1015F0008095892382A378940E947B0AE3E6F1E038
:1016000030E020E0B12CA12C4191A42FA295AF7025
:10161000B0E090968C9190E04F7002C095958795C0
:101620004A95E2F780FD39C0C701022E02C0880F3B
:10163000991F0A94E2F7A82AB92A2F5F3F4F2C304E
:10164000310511F7FE01319780810E947F0AF80170
:1016500080819181A816B90619F1B182A08281E03A
:10166000D82A0E5F1F4FF1E0C337DF0709F0ADCF77
:101670002D2D44E06BEF72E083EF92E00E941E0C90
:101680000E9489078D2DDF91CF911F910F91FF90BF
:10169000EF90DF90BF90AF90089590E080E0CBCFC7
:1016A00080E0DECFCF93C82F2CE0829FC0011124B1
:1016B0000E9496338093E5019093E6019C0180E0BF
:1016C0004BEF8C1302C0CF910895F9019CE0419338
:1016D0009150E9F78F5F245F3F4FF3CFCF92DF92B6
:1016E000FF920F931F93CF93DF93062F1092E40185
:1016F0002091E5013091E601245F3F4F10E090E03A
:10170000A62FB0E04BEFF42E5BEFC52ED12C981333
:101710000AC01093E401DF91CF911F910F91FF90C8
:10172000DF90CF900895F9013C9741914B3FA9F08C
:10173000642F70E00417C0F0AD01461B570B052E57
:10174000000C660B770B453051056105710590F073
:10175000AF0141505109EA01F882E217F30729F776
:101760009F5F245F3F4FD3CFA601461B570B4A0F05
:101770005B1FE5CF11E0F1CF6F927F928F929F9226
:10178000AF92BF92CF92DF92EF92FF920F931F938F
:10179000CF93DF931092E301C091E501D091E60170
:1017A0005091E4013B017C0130E090E08824839477
:1017B000912C941313C05093E4013093E301DF9113
:1017C000CF911F910F91FF90EF90DF90CF90BF903E
:1017D000AF909F908F907F906F900895D7010D915B
:1017E0001D917D01F301A081B1810A271B2770E0C3
:1017F00060E06401062E02C0CC0CDD1C0A94E2F706
:101800005801AC20BD20AB2859F05E01A60EB71ED2
:10181000F50180818B3F81F42083AC25BD2551E00B
:101820006F5F7F4F6C30710521F72C96F301A19308
:10183000B1933F019F5FBDCF31E0F2CFDF92EF92D6
:10184000FF920F931F93CF93DF93EC018B01E42E54
:10185000D22E0E9477266091E1017091E20190936F
:10186000E2018093E1012091E00130E0261B370B7B
:10187000820F931F6BEF70E00E941533F82E809358
:10188000E0018091E401882321F06F2D8E2D0E94CC
:101890006E0BD11004C08091E301882369F02F2DD5
:1018A0004E2DB801CE01DF91CF911F910F91FF9086
:1018B000EF90DF900C94BC0BDF91CF911F910F91B3
:1018C000FF90EF90DF900895EF92FF920F931F9398
:1018D000CF93DF93EB01E82FD11110C0442321F007
:1018E000F0E0EF55F84FE4916E2F7E2F8E2FDF91B1
:1018F000CF911F910F91FF90EF9008950D2F10E061
:10190000282F30E0442329F02F55384FF901249136
:1019100030E0F6E0CF9FC0011124EFEFF0E0BF010F
:101920000E941533AB018C2F90E0880F991FA5E51D
:10193000A49FB001A59F700D1124861B970B982FB3
:10194000990F980FBF01601B710B629FD001639FBD
:10195000B00D729FB00D11248B2F9D9FB0011124EB
:10196000672F7727EF01C61BD70BBE01629FE001EF
:10197000639FD00D729FD00D11247F01E91AF108E9
:10198000E09EB001E19E700DF09E700D1124672F56
:101990007727E61BF70BE29F8001E39F100DF29F74
:1019A000100D1124E12F722F4230510599F048F4A7
:1019B0004115510569F04130510581F0EB2F8D2F14
:1019C00007C04430510569F080F046305105B1F749
:1019D0006E2F8DCFE22F7B2F812FFACFE22F7D2F1D
:1019E000F7CFEB2F822F712FF3CF7B2F822FED2F8D
:1019F000EFCF41E00C94640C08950C94F90CCF9354
:101A0000DF93762FE901682F842F0E94FD0C7983E4
:101A100068838A83DF91CF91089580910303982F83
:101A20009E7F29F481708260809303030895863538
:101A3000E8F381708465F8CF88E090E00C9432354B
:101A4000CF92DF92EF92FF926B017C010E940D0D0D
:101A5000B701A60188E090E0FF90EF90DF90CF9073
:101A60000C945035E3E0F3E083E0808311828FEF44
:101A700082838383148260817181828193810C943B
:101A8000200D8091BD0280FF76C08EE696E09F9388
:101A90008F930E94BB068091BD020F900F9080FF34
:101AA0006AC08091030381701F928F9381E596E055
:101AB0009F938F930E94BB068091BD020F900F9061
:101AC0000F900F9080FF57C08091030386951F925F
:101AD0008F9386E396E09F938F930E94BB0680913D
:101AE000BD020F900F900F900F9080FF44C0809127
:101AF00004031F928F938CE196E09F938F930E9433
:101B0000BB068091BD020F900F900F900F9080FF49
:101B100032C0809105031F928F9382E096E09F93DD
:101B20008F930E94BB068091BD020F900F900F9083
:101B30000F9080FF20C0809106031F928F9388EE44
:101B400095E09F938F930E94BB068091BD020F90FA
:101B50000F900F900F9080FF0EC0809107031F928F
:101B60008F938CEC95E09F938F930E94BB060F9010
:101B70000F900F900F9008958091030380FF02C093
:101B80008695089580E0089590910703933018F4A6
:101B90009F5F90930703882351F060910303709136
:101BA000040380910503909106030C94200D089581
:101BB00081E00C94C40D90910703992319F0915082
:101BC00090930703882351F06091030370910403FD
:101BD00080910503909106030C94200D089581E0F7
:101BE0000C94DB0D70E00C94871560910E018091D0
:101BF000030380FF0AC080910D0123E0829FC00192
:101C00001124885F9C4F0C94F20D80910F019091EC
:101C1000100123E0829FF0011124E85FFC4F891737
:101C200050F71182108212828F5F3396F8CF909115
:101C3000030390FF14C090910F012091100133E035
:101C4000939FF0011124E85FFC4F921710F00C9461
:101C5000F50D8183608342839F5F3396F6CF0895AD
:101C6000CF93DF9300D00F92CDB7DEB790910303EF
:101C700090FF0AC09E012F5F3F4F0E94FF0C4B81D7
:101C800069818A810E94170E0F900F900F90DF914B
:101C9000CF910895CF93DF93EC01EC81F0E0E4560F
:101CA000F94F4491E3E0F3E0628181810E94300EBC
:101CB0008C818F5F8C83DF91CF910895CF93DF93D9
:101CC000EC01E3E0F3E0438162818C810E94300EFD
:101CD0008C818F5F8C83DF91CF9108950F931F9339
:101CE000CF93DF9300D00F92CDB7DEB78C018091F8
:101CF000E70181110AC09E012F5F3F4F4FEF6FEF49
:101D00000E94FF0C8A818093E701F80164816130B1
:101D100069F08091E70140E0662361F040E06230C5
:101D200011F44091E70180E060E004C06091E701B8
:101D300040E080E00E94170EF801848190E0019657
:101D400063E070E00E94293384830F900F900F901E
:101D5000DF91CF911F910F9108954F925F926F92F3
:101D60007F928F929F92AF92BF92CF92DF92EF922B
:101D7000FF920F931F93CF93DF9300D00F92CDB7B5
:101D8000DEB7182FD62E042F722E9091030390FFEA
:101D900046C0E92FE695AE2FB0E0AD58BE4F8C910E
:101DA000809323029E7F923009F04DC09E012F5FE9
:101DB0003F4F812F0E94FF0C4B8169818A810E94D5
:101DC000170E10930403D0920503009306037720A7
:101DD00009F49CC060910303709104038091050392
:101DE000909106030E94200D8091BD0280FF17C0D4
:101DF000809106031F928F93809105031F928F930A
:101E0000809104031F928F938FE893E09F938F93A9
:101E10000E94BB060FB6F894DEBF0FBECDBF0F9079
:101E20000F900F90DF91CF911F910F91FF90EF9046
:101E3000DF90CF90BF90AF909F908F907F906F90EA
:101E40005F904F900895823019F400910603B9CF46
:101E5000863019F410910403B4CF8930D9F3893155
:101E600009F0AFCFE9518E2F8170682E8E2F8095AB
:101E70008170C82EE695F0E0E456F84FE590F490B6
:101E8000412CFF2494EBA92E93E0B92E609111010F
:101E9000461618F00E94F50D94CF842C912C8E9C40
:101EA000C0018F9C900D9E9C900D112470E00E94AB
:101EB0001533512E611028C0560E8091BD0280FF4F
:101EC00011C0FF92EF921F92CF921F925F921F92CA
:101ED0004F92BF92AF920E94BB060FB6F894DEBF3E
:101EE0000FBECDBF20910F01820E911C9401220FD5
:101EF000331F280D391D285F3C4F402F6D2D852D38
:101F00000E94FF0C4394C2CF561AD7CF8091BD02D6
:101F100080FF85CF1F920F931F92DF921F921F9316
:101F200088E693E073CFE3E0F3E09181282F4381CB
:101F3000628188E0890F0C94AD0E81E00C94930FC0
:101F4000E3E0F3E09181282F4381628188EF890FDC
:101F50000C94AD0E81E00C94A00FE3E0F3E06281FD
:101F600028E0620F08F46FEF282F438181810C94E1
:101F7000AD0E81E00C94AD0FE3E0F3E0628128E068
:101F8000621B08F460E0282F438181810C94AD0E20
:101F900081E00C94BC0FE3E0F3E0438128E0420FC2
:101FA00008F44FEF282F628181810C94AD0E81E0FF
:101FB0000C94CB0FE3E0F3E0438128E0421B08F4EC
:101FC00040E0282F628181810C94AD0E81E00C9459
:101FD000DA0F20E00C94AD0EEF92FF921F93CF9397
:101FE000DF93EC0110E0EE24EA94F12C60911101F2
:101FF000161770F00E94F50D9A818C8190FF27C012
:102000008F5F8C83DF91CF911F91FF90EF900895A8
:1020100020910F01422F410F5527551FCA019A01E8
:10202000220F331F280F391F285F3C4F70E0C70174
:102030000E942933962F8C814091060360910503FD
:10204000199F800D11240E94FF0C1F5FCFCF81507C
:10205000D8CFAF92BF92CF92DF92EF92FF920F93C1
:102060001F93CF93DF93FC0182810FEF80FF01E08C
:1020700010E04AE0A42E809111011817C8F00E94C8
:10208000F50D8091E901013009F055C0811102C0C0
:102090008091110181508093E901DF91CF911F91CF
:1020A0000F91FF90EF90DF90CF90BF90AF90089589
:1020B000C0910F01C12ED12CCC0DDD2DD11DCE0133
:1020C000880F991FC80FD91FC85FDC4F198218826B
:1020D0001A8234E0E32EF12CB12C8091E9018B0DB2
:1020E0008B301CF16A2D0E940733892F082E000CBB
:1020F000990BC816D90691F4809106038E9DA00114
:102100008F9D500D112455954795559547959E01E6
:1021100060910503809104030E94FF0CB00EF1E072
:10212000EF1AF108D1F61F5FA6CF87FFDFCF90919E
:102130001101890FDBCF90E001966091110170E0F1
:102140000E942933A8CF0F931F93CF93DF938091E1
:102150000F019091100123E0829FF0011124E85FAC
:10216000FC4F891740F1C0E0D3E060911101C61720
:1021700040F10E94F50D20910B018091E801820F42
:102180008093E80190910C01920F90930C01191625
:1021900054F4082E000C990B409111014150550B3D
:1021A000841795071CF0219520930B01DF91CF91A7
:1021B0001F910F9108951182108212828F5F3396C2
:1021C000D0CF0C2F10E070E0C8010E94293320917D
:1021D0000F01820F482F50E02091E801022E000CE1
:1021E000330B02171307BCF020910C01022E000CD8
:1021F000330B201731077CF08D9F90011124285F4D
:102200003C4F4091060360910503809104030E94B6
:10221000FF0CCF5FAACFFA01EE0FFF1FE40FF51FEF
:10222000E85FFC4F118210821282F3CF8F929F924F
:10223000AF92BF92CF92DF92EF92FF920F931F93D4
:10224000CF93DF93EC014C81042F10E09801D8016B
:102250000E946D339B01AC010E9483334B015C01F2
:10226000E0E2F0E0E01BF10BA5E5B0E0AC019B0182
:102270000E9483336B017C019F01DF010E94653363
:102280009B01AC010E948E339B01AC01280D391DCE
:102290004A1D5B1DC701B6010E943D33F22E822FFD
:1022A00090E039E23F1560F143E0249F9001112452
:1022B00035952795122F109500E085E5E82EEF184B
:1022C00080911101081758F10E94F50D9C8181E061
:1022D000992319F0903219F48FEF80930A018091BD
:1022E0000A01890F8C83DF91CF911F910F91FF908D
:1022F000EF90DF90CF90BF90AF909F908F90089518
:1023000025E530E0B901681B790B9B01220F331FD3
:10231000260F371F37FFCCCF2F5F3F4FC9CF8E2DF2
:1023200001FD8F2D20910F01622F600F7727771FFE
:102330009B01220F331F260F371F285F3C4F412F71
:10234000609105030E94FF0C0F5FBACF0F931F939C
:10235000CF93DF93EC0110E000E090911101901712
:10236000110609F06CF40E94F50D8C8190E0019645
:10237000817099278C83DF91CF911F910F910895E0
:1023800020910F01A801420F511D9A01220F331F06
:10239000240F351F285F3C4F4C81609105038091CD
:1023A000040396959017110651F04CF0442349F020
:1023B000409106030E94FF0C0F5F1F4FCECF4423B6
:1023C000B9F340E0F7CF8F929F92AF92BF92CF9236
:1023D000DF92EF92FF920F931F93CF93DF93FC0155
:1023E000B280948081E0848300E015E05BE4A52E58
:1023F00088248394EE24EA94F12C7BE4C72ED12C1C
:1024000080911101081770F0DF91CF911F910F910A
:10241000FF90EF90DF90CF90BF90AF909F908F9004
:102420000C94F50DC02FD0E01C9FF0011D9FF00D06
:102430001124E651FE4F91101CC01382128220918C
:102440000F01CE01820F911D9C01220F331F280F17
:10245000391F285F3C4F1C9FF0011D9FF00D112478
:10246000E651FE4F4281618180810E94FF0C0F5F27
:10247000C7CF2381222379F12150238334818A2DF0
:10248000821B311101C0822F1C9FF0011D9FF00D96
:102490001124E651FE4F90910603899FC00111243B
:1024A000B6010E9415336283211104C0332311F059
:1024B0001482A38222E02B1510F21C9FF0011D9FB5
:1024C000F00D1124E651FE4F80910403808380912A
:1024D00005038183B4CF0E940D35823091400CF00A
:1024E000AECF82E08B1530F50E940D35B7010E940A
:1024F00029331C9FF0011D9FF00D1124E651FE4F62
:10250000808322E02B15C8F40E940D35209105032D
:102510002695622F70E00E942933280F1C9FF0013E
:102520001D9FF00D1124E651FE4F21831282A382DC
:10253000848285CF80910403DCCF20910503EECF08
:1025400060910303669570E04BE050E082E191E01A
:102550000E941D35892B19F481E0809324020E948A
:10256000772690931D0280931C028091BD0280FF0C
:1025700008C08FE493E09F938F930E94BB060F9057
:102580000F900895109224028091BD0280FF08C030
:1025900086E393E09F938F930E94BB060F900F906A
:1025A00008959091030390FF54C0917081113BC036
:1025B0009260909303036623E9F1609103037091A5
:1025C000040380910503909106030E94200D8091E1
:1025D000BD0280FF0FC08091030386951F928F93E9
:1025E00082E195E09F938F930E94BB060F900F901E
:1025F0000F900F9060910303669570E04BE050E000
:1026000082E191E00E941D35892B01F10E94C212E6
:1026100081E080931F024091060360910503809141
:1026200004030C94E90F8B3210F09465C2CF880F2D
:10263000982BBFCF8091BD0280FFDCCF8091030338
:1026400086951F928F9384EF94E0CCCF0E94A012C6
:10265000DFCF0895682F90910303969581E0890F4D
:102660008B3208F081E00C94D11281E00C942A1393
:10267000682F9091030396958FEF890F09F48AE2F2
:102680000C94D11281E00C94381361E00C94D112B7
:10269000809103038160809303038091BD0280FFDA
:1026A0000DC01F9281E08F9386E894E09F938F93F3
:1026B0000E94BB060F900F900F900F908091030324
:1026C00086950C94451360E00C94D11280912202FF
:1026D000811160C08091BD0280FF14C085EB95E040
:1026E0009F938F930E94BB068091BD020F900F9025
:1026F00080FF08C08FE995E09F938F930E94BB06EF
:102700000F900F900E944524811110C08091BD024E
:1027100080FF08C087E795E09F938F930E94BB06D8
:102720000F900F900E94F3240E94320D0E941C0D06
:10273000609303037093040380930503909306034F
:102740006E7FC1F48091BD0280FF08C08EE295E0EB
:102750009F938F930E94BB060F900F900E94320DA3
:102760000E941C0D60930303709304038093050380
:10277000909306030E940D0D0E94410D10922402B9
:102780008091030380FF03C086950E94631381E05C
:102790008093220208958091030381608093030354
:1027A0008091BD0280FF0DC01F9281E08F938DE468
:1027B00094E09F938F930E94BB060F900F900F9011
:1027C0000F908091030386950C946313809103030B
:1027D0008E7F8093030360910303709104038091C3
:1027E0000503909106030E94200D8091BD0280FF99
:1027F0000FC08091030381701F928F9385E194E055
:102800009F938F930E94BB060F900F900F900F9095
:102810000E94C2122FEF80E792E02150804090404A
:10282000E1F700C000000C94F50D8091BD0280FF1F
:1028300010C080910303809581701F928F938DEB60
:1028400094E09F938F930E94BB060F900F900F9080
:102850000F908091030380FD0C94E6130C944813B1
:10286000809103038E7F809303038091BD0280FFDC
:102870000CC01F921F928BED93E09F938F930E9449
:10288000BB060F900F900F900F900E94C2122FEF77
:1028900080E792E0215080409040E1F700C00000C6
:1028A0000C94F50D0F931F93CF93DF938091240227
:1028B000882309F49DC080912302E0910303E695EB
:1028C000E81BE0931E028230C9F5F0E0E856F94FAC
:1028D000E491CE2FD0E00AE41EE080911F0288230D
:1028E00089F010921F020E9477269E012095309554
:1028F000820F931F90931D0280931C02109221025D
:102900001092200280911C0290911D020E94832649
:102910008C179D0708F46CC0E0911C02F0911D0219
:10292000CE0FDF1FD0931D02C0931C028CE192E0FA
:10293000F801DF91CF911F910F910994863049F4EE
:10294000F0E0EB56F94FE491CE2FD0E00EE51EE01B
:10295000C4CF893051F4E695F0E0EE56F94FE4919A
:10296000CE2FD0E00CEE1FE0B8CF8F3051F4E695BB
:10297000F0E0E157F94FE491CE2FD0E009E210E109
:10298000ACCF853149F4F0E0E457F94FE491CE2F14
:10299000D0E003EA10E1A1CFC8E2D0E006E111E106
:1029A000883109F49ACF833239F4EAE8F6E0C59128
:1029B000D4910EE61EE091CFC4EFD1E006EA11E11A
:1029C000843209F48ACFC0EDD7E00CEF1CE08532E9
:1029D00009F083CF8E2F63E00E94FB32E92FF0E0F5
:1029E000E957F94FE491CE2FD0E003EE11E175CF16
:1029F000DF91CF911F910F910895FA01811101C0CC
:102A0000FB010994CF93DF93C82FD62F0E94BC0DF2
:102A10008C1740F00E94BC0D8D1720F4DF91CF91F0
:102A20000C9435138C2FDF91CF910C9445130F9399
:102A30001F93CF938C01FB01C281CC2309F465C0A5
:102A40000E9467238272F801E35CFC45E431F105E2
:102A500038F4ED56FA4C0C945F330E941514C0E024
:102A60008C2FCF911F910F91089542E453E165E3BC
:102A700073E10E94FD14F3CF45E353E162E473E197
:102A8000F8CF4AEA5FE06DE97FE0F3CF4DE95FE020
:102A90006AEA7FE0EECF48EC5FE069EB7FE0E9CFE8
:102AA00049EB5FE068EC7FE0E4CF46EE5FE067ED86
:102AB0007FE0DFCF47ED5FE066EE7FE0DACF4FEEFD
:102AC0005DE068ED7DE0D5CF48ED5DE06FEE7DE047
:102AD000D0CF81E00E944513C2CF65E082E00E9422
:102AE0000215BDCF68E086E0FACF6EE089E0F7CF4F
:102AF00064E18FE0F4CF67E185E1F1CF88E1EACFCF
:102B000062E289E1ECCF83E2E5CFC1E0A9CF6A9A26
:102B10004EB14B7F5EB15460EFB7F8949B01220F2A
:102B2000331F260F371F280F391F2817390741F485
:102B3000EFBF8FE594E00197F1F700C00000089522
:102B4000DC016D91CD0178E05EB9000000C067FF47
:102B50004EB9660F000000C000C000C04EB900C0F2
:102B60007A9591F7E2CFCF93DF93EC0197FF0CC0FA
:102B7000FB018281882341F00E940616CE019F77D7
:102B80000E944A160E94321681E0DF91CF9108958B
:102B90008CE090E00E942A35482F50E070E060E021
:102BA00040932603509327036093280370932903CF
:102BB0009091BD0290FF0CC01F928F9380EC98E023
:102BC0009F938F930E94BB060F900F900F900F90D2
:102BD0000895609126038CE090E00C943E3580933C
:102BE00026030E94E9158091BD0280FF0EC08091EE
:102BF00026031F928F9381EA98E09F938F930E9400
:102C0000BB060F900F900F900F9008950E946723BE
:102C100080932A030E947A2380912603813089F0D1
:102C2000882359F0823091F08430B9F08FE39CE929
:102C30000197F1F700C00000089582EE0E94F71A94
:102C4000F5CF88E193E00E942507F0CF82EE0E9445
:102C5000F71A87E50E943B1BE9CF86EE0E943B1BDB
:102C600088E1F8CF80912603813071F0882341F00C
:102C7000823031F0843061F080912A030C94772304
:102C800082EE0E94381BF8CF8CE20E943B1BF4CFEF
:102C900088E2FBCF0F931F93CF93DF938C01CCE09F
:102CA000D0E0C8010C2E02C0969587950A94E2F7F1
:102CB0008F700E948B070E9425072497CC3F8FEFCF
:102CC000D80779F7DF91CF911F910F9108950F9356
:102CD0001F93CF93DF93EC018B01FB01828188234B
:102CE00051F00E946723CE01825E9C45853091059C
:102CF00010F40E94EF15B801CE01DF91CF911F9122
:102D00000F910C94B315AF92BF92CF92DF92EF92D6
:102D1000FF920F931F93CF93DF937C015B01C42F2E
:102D2000D22FFC0182818823F9F0409327020E9470
:102D30007726909326028093250280E28C0F8830BC
:102D400008F061C0C77081E001C0880FCA95EAF73A
:102D5000DF91CF911F910F91FF90EF90DF90CF9077
:102D6000BF90AF900C944E1B10912702141340C0DB
:102D700080912502909126020E9483266C01B70162
:102D8000C5010E944E20C816D90690F5C0E2CD0FAD
:102D90001D17B9F080E2810F883040F4177081E090
:102DA00001C0880F1A95EAF70E94551BC83048F4F5
:102DB00081E09D2F977001C0880F9A95EAF70E94D5
:102DC0004E1B802F0E943B1BC830E8F4D77081E077
:102DD00001C0880FDA95EAF7DF91CF911F910F912B
:102DE000FF90EF90DF90CF90BF90AF900C94551B69
:102DF00080E28C0F883038F4C77081E001C0880F02
:102E0000CA95EAF7E9CFDF91CF911F910F91FF901B
:102E1000EF90DF90CF90BF90AF9008950F939C01FB
:102E2000CB01243F4CE5340759F1A8F4293DFCE5DA
:102E30003F0701F12A3D4CE53407D1F1283D3C45DF
:102E400091F406E221EE41EE68ED7CE50E948316E6
:102E500080E00F910895263FFCE53F07E9F0B0F0D0
:102E6000273F3C45F9F0FC018281882339F110921B
:102E70002702EFCF07E225EE45EE69ED7CE5E6CFD0
:102E800006E221EE40EE64EF7CE5E0CF07E225EEBE
:102E900044EE65EF7CE5DACF06E221EE42EE66EF26
:102EA0007CE5D4CF07E225EE46EE67EF7CE5CECF9A
:102EB00008E221E045EE6AED7CE5C8CF81E0C9CFAC
:102EC000CF93DF93EC01FB018281882309F419C1C0
:102ED000C230FCE5DF07C0F1C6319CE5D90730F010
:102EE0009E012B5F3C452930310570F50E9462241C
:102EF0009093300380932F03C031ECE5DE0709F493
:102F0000CFC008F05BC0C8308CE5D80709F4B6C064
:102F100088F5C430ECE5DE0709F4A8C0C0F4C2307F
:102F20008CE5D80709F49CC080912F038260C330E0
:102F3000DC4509F498C080912F03909130030E94E2
:102F400070240E94D81D80E0DF91CF910895809178
:102F50002F038061C630ECE5DE0709F484C0809160
:102F60002F038860C730DC4508F47DC080912F03B3
:102F7000806279C0CC308CE5D80709F489C070F440
:102F800080912F038C60CA30ECE5DE0709F46BC03A
:102F900008F478C080912F038E7F65C0CE308CE519
:102FA000D80709F479C080912F038B7FCF30DC459F
:102FB00008F459C080912F038F7E55C0CC3FECE5BB
:102FC000DE0709F457C030F5C3318CE5D80709F4A2
:102FD0006FC078F4C131ECE5DE0709F465C0C23199
:102FE000DC4509F0A8CF0E94D81D80912F038F7770
:102FF0003AC0C5318CE5D80709F462C008F476C040
:10300000809130038160CB3FDC4509F094CF809301
:10301000300391CFC115FDE5DF0709F44DC088F4F9
:10302000809130038D7FCE3F9CE5D90781F380915D
:1030300030038E7FCF3FDC4550F3809130038360B7
:10304000E6CFC230FDE5DF0709F459C008F444C0FB
:1030500080E0C330DD4509F06ECF0E94F5246BCFD0
:1030600080912F03816080932F0365CF80912F0380
:103070008460F9CF809130038260C9CF80912F03A3
:103080008064F1CF0E94D81D80912F038068EBCF20
:1030900080912F038D7FE7CF80912F03877FE3CF30
:1030A00080912F038F7DDFCF80912F038F7BDBCF2C
:1030B00080912F03837FD7CF809130038C7FA7CF60
:1030C00080912F0382FB992790F921E0922790FBB2
:1030D00082F990FB83F9C7CF80913003982F9095A8
:1030E00091708E7F892B90FB81F991CF0E94D81D22
:1030F00090912F03892F97FB87F98058B4CF81E0F7
:10310000ACCF81E021CFCF93DF93EB0186319C459B
:1031100011F50E9467239A81992399F08A7A91E0A8
:1031200009F490E090932802811109C089E20E947D
:1031300035230E94E72380E0DF91CF91089585E356
:10314000F6CF80912802811104C089E20E943C23BD
:10315000F0CF85E3FBCF81E0EFCF90932E028093F9
:103160002D020895E0912D02F0912E02309721F06A
:103170000190F081E02D099480E00895EF92FF9294
:103180000F931F93CF93DF93EC01E0912D02F09109
:103190002E02309709F446C080913101882341F016
:1031A00080912F0387FF04C08881898385E088830D
:1031B0000280F381E02DCE0109958091BD0282FF4E
:1031C00031C080FF04C088EE98E00E94220610E023
:1031D00000E082EEE82E88E0F82E8091BD0280FFAC
:1031E0000EC0FE01E00FF11F80811F928F93FF92AE
:1031F000EF920E94BB060F900F900F900F900F5F01
:103200001F4F0830110549F78091BD0280FF0AC0A9
:1032100080EE98E0DF91CF911F910F91FF90EF909A
:103220000C942206DF91CF911F910F91FF90EF90A8
:103230000895E0912D02F0912E02309739F022E0AE
:10324000DC012C930480F581E02D099408952091F0
:103250002B0230912C022817390771F090932C0221
:1032600080932B02E0912D02F0912E02309721F0F5
:103270000680F781E02D099408952091290230916C
:103280002A022817390771F090932A0280932902A5
:10329000E0912D02F0912E02309721F00084F1850B
:1032A000E02D0994089585B7806885BF85B780684B
:1032B00085BF0895089508950C945A1908950C94A3
:1032C0005E190E9453190E945B190C945C1981E0ED
:1032D00008950C946719089508950E946E260E941F
:1032E000960A0E9425270E946613EFE2F3E0808190
:1032F0008068808380912F03909130030E94702416
:103300000C945F19CF93C82F8091BD0282FF1EC01D
:1033100080FF1CC081E099E00E9422068091BD02DE
:1033200080FF14C01F92CF938CEF98E09F938F93F0
:103330000E94BB068091BD020F900F900F900F90DE
:1033400080FF04C08AEF98E00E9422068C2FCF9164
:103350000C94A0077F928F929F92AF92BF92CF92D0
:10336000DF92EF92FF920F931F93CF93DF93CDB72E
:10337000DEB72A970FB6F894DEBF0FBECDBF0E940E
:103380006B190E946C190E94D40A0E94691920E3EB
:10339000E22E22E0F22E10E000E0811136C08FEF25
:1033A00089838A831B820E9477268160782F9D8380
:1033B0008C8349815A816B818D810E94651A0E949C
:1033C0005A230E9452140E945E2A0E94B2189091C1
:1033D0002F02891709F465C00E94B21880932F024A
:1033E0002A960FB6F894DEBF0FBECDBFDF91CF9106
:1033F0001F910F91FF90EF90DF90CF90BF90AF9013
:103400009F908F907F900C948219812F0E942B0A9D
:103410004C01F701A080B180A816B906B9F18091DE
:10342000BD0281FD0E94340A712CCC24C394D12C9E
:10343000A824B924C5018C219D21892B09F17E8204
:103440001F8321E0C4018C219D21892B09F420E0F8
:1034500028870E9477268160782F9A8789874E81F6
:103460005F8168858A850E94651AF7018081918154
:103470008C259D25918380830F5F0B3208F09FCFB1
:103480007394CC0CDD1CFCE07F12D4CF1F5F82E074
:10349000E80EF11C143009F0B8CF002309F47FCFF7
:1034A0008ECF2A960FB6F894DEBF0FBECDBFDF9148
:1034B000CF911F910F91FF90EF90DF90CF90BF9031
:1034C000AF909F908F907F900895CF93DF93CDB76B
:1034D000DEB72B970FB6F894DEBF0FBECDBF4F837C
:1034E000588769877A878B871E821D8285E0FE0157
:1034F0003796DE01119601900D928A95E1F7498188
:103500005A816B817C818D819E812B960FB6F894B8
:10351000DEBF0FBECDBFDF91CF910C945120FC01D7
:10352000808191810C940723CF93DF93C82FD62FEE
:10353000882309F456C08CEF8C0F813A00F56C2F6C
:1035400080911D0190911E010E940E25882339F063
:103550008C2F0E943C23DD2359F00E94B6238C2F30
:103560000E943523DD2339F0DF91CF910C94B623EF
:103570000E94E723F4CFDF91CF910C94E72380E200
:103580008C0F883048F4C77081E001C0880FCA955D
:10359000EAF70E946A23E6CFEBE5EC0FE33048F44C
:1035A000F0E0E453FE4F808190E0DF91CF910C94E6
:1035B0002719E8E5EC0FE73158F4F0E0EE0FFF1FB4
:1035C000E256FE4F80819181DF91CF910C943D199D
:1035D000C03F38F08C2F0E94D628DF91CF910C94F9
:1035E000C129DF91CF91089561E00C94941A60E0B5
:1035F0000C94941ACF93C62F8823A9F19CEF980FAF
:10360000913A50F40E943C23CC2319F0CF910C94B2
:10361000B623CF910C94E72390E2980F983050F4A2
:10362000877091E001C0990F8A95EAF7892F0E946F
:103630007023EACF9BE5980F933028F490E080E068
:10364000CF910C94271998E5980F973128F490E0C2
:1036500080E0CF910C943D19803F28F00E943E29D4
:10366000CF910C94C129CF91089561E00C94FA1A7E
:1036700060E00C94FA1ACF93C82F0E94F71AC9334E
:1036800049F42FEF87EE93E0215080409040E1F71E
:1036900000C000008C2FCF910C94381B882321F0A0
:1036A0000E946A230C94E7230895882321F00E9446
:1036B00070230C94E7230895BF92CF92DF92EF928C
:1036C000FF920F931F93CF93DF936C01D62FC72FD9
:1036D000FC01058102950F70128111110E948A234D
:1036E0000E945323E82E882391F01123D1F08C2FD0
:1036F000807F803421F080E28D0F883090F082E06E
:103700000E9403240E94532391E0E82EE926BC2E58
:10371000B2949FE0B922EB2DF0E0E955FA4C0C94FD
:103720005F33E12CF4CF0C2F0F70C07F11F00295A6
:10373000007F1123A9F0002359F080E28D0F88301B
:1037400010F0D11109C0802F0E946A230E94B62375
:103750008D2F0E94F41A14C0802F0E947D23F6CF73
:103760008D2F0E94351B002359F080E28D0F883089
:1037700010F0D1112CC0802F0E9470230E94B6231C
:103780002B2D2850330B2430310520F40E94B21821
:103790000E94A007EE2009F49EC10E944F2380FDE5
:1037A0009AC1F60112820E9449230E94D521C601C6
:1037B0000E948C1D0E944923DF91CF911F910F9190
:1037C000FF90EF90DF90CF90BF900C94F621802F68
:1037D0000E948323D3CFFC2FFF70FF2EC07FC03207
:1037E00019F0F29480EFF822DD2369F0D13049F12D
:1037F000112391F1002351F1F601858180FFA8CFBB
:103800008F70858323C0112381F0011106C00E94AF
:103810009D238F290E944E1BB3CF0130C1F70E9418
:103820009D238F290E94A323ABCF011106C00E94C4
:10383000AC238F2D0E94551BA3CF013009F4A0CFDC
:10384000F6CF112329F0063008F09ACF8F2DE2CF62
:10385000053008F095CFEDCF002359F3D93349F463
:10386000FFEF27EE33E0F15020403040E1F700C099
:1038700000008D2F0E94351B83CF8C2F8695869557
:10388000837069F0813009F07BCF8D2F9C2F93706E
:10389000111102C090E080E00E943D1971CF8D2F80
:1038A0009C2F9370111102C090E080E00E942719B4
:1038B00067CF8D2F112329F00E94D6280E94C1299D
:1038C0005FCF0E943E29FACF8C2F837009F041C050
:1038D000111156CF4D2F429546954770440F440F16
:1038E0000D2F0F7010E030E020E0042E04C0000F18
:1038F000111F221F331F0A94D2F760E070E0CB0142
:10390000D4FF0FC06FE070E080E090E004C0660F6D
:10391000771F881F991F4A95D2F7609570958095FB
:103920009095C695C695C370602B712B822B932BF7
:10393000C23049F058F4C13019F00E94872120CFDD
:103940000E9475211DCF0E9499211ACF0E947321D8
:1039500017CF8695112311F08C2F8170882309F4DD
:103960000FCF4D2F429546954770440F440F0D2FB2
:103970000F7010E030E020E0042E04C0000F111F93
:10398000221F331F0A94D2F760E070E0CB01D4FF0E
:103990000FC06FE070E080E090E004C0660F771F1A
:1039A000881F991F4A95D2F76095709580959095DC
:1039B000C695C695C370602B712B822B932BC2309A
:1039C00049F058F4C13019F00E944C22D9CE0E941F
:1039D0003A22D6CE0E945E22D3CE0E94AF21D0CE14
:1039E000CF70112329F08C2F0E94D5218D2F12CF5B
:1039F0008D2F0E94551B8C2F0E94F621C1CED23FE5
:103A000089F160F4D03FC9F0D13F29F1112309F4C5
:103A100042C001119DCE8C2F8F7121C0D33F39F14F
:103A2000D43FA1F7112369F1CF718C2F0E94D521CA
:103A300063E08C2F0E94EE23A3CE112341F00530CA
:103A400008F09ECE8C2F8F710E94192299CE0630DD
:103A500008F096CEF7CF8C2F8F71112369F20E9458
:103A6000D5218ECE8C2F8F711123C9F3C5CF112391
:103A700029F08C2F8F710E94C02182CE0E94BB2121
:103A80007FCE81E00E940324023008F479CE82E0E8
:103A90000E94032475CE002359F0D93309F0E9CEF2
:103AA0008FEF97EEE3E081509040E040E1F7DFCE0A
:103AB0008C2F8F71A1CF4C2F4F706D2FC6010E949C
:103AC00016080E94EB205CCE4C2F4F706D2FC60164
:103AD0000E94190855CEDF91CF911F910F91FF9051
:103AE000EF90DF90CF90BF9008950F931F93CF93E7
:103AF000DF93EC01688179818A810E9411238C0116
:103B00000E9470220E947221B801CE01DF91CF91F4
:103B10001F910F910C945C1BCF93DF93EC018B8171
:103B20009C81892B29F08881998189238F3F59F4C1
:103B3000DF91CF910895CE010E94751DCE01DF91D6
:103B4000CF910C947407CE010E94B8078111F3CF76
:103B50000E945323882361F38A81882349F382E0FA
:103B6000DF91CF910C940324882321F00E947D23C0
:103B70000C94E7230895882321F00E9483230C945A
:103B8000E72308950E948A230E949A230E94E72334
:103B90000E946A2B0E94C12990E080E00E942719B0
:103BA00090E080E00C943D190E9443230C94C21DC8
:103BB0000E947A230C94D41DE92FE295EF70E25015
:103BC000EE3070F4F0E0E954FA4C0C945F33803F2F
:103BD00019F020F4883E20F481E00895843FE1F359
:103BE00080E00895883EC0F3813FD1F7F5CF93FB85
:103BF000882780F908950E9407230C94DC1DCF9339
:103C0000DF9300D000D00F92CDB7DEB70F900F90AA
:103C10000F900F900F90DF91CF910895CF93DF9386
:103C200000D000D000D0CDB7DEB726960FB6F894FE
:103C3000DEBF0FBECDBFDF91CF9108951F93CF930D
:103C4000DF93C091390216E080913A028C1304C0D0
:103C5000DF91CF911F910895D0E01C9FF0011D9F2F
:103C6000F00D1124E55CFD4F40815181628173812B
:103C7000848195810E940E1E2196C770E5CF4091E8
:103C80006B0250916C0260916D0270916E02809196
:103C90006F02909170020C940E1E1F93CF93DF93CE
:103CA00080917002807FA9F480916D02882389F051
:103CB00080913902C0913A0260916B0270916C025E
:103CC000A0916E02B0916F02D62FD72316E0C813D1
:103CD00004C0DF91CF911F91089590E0109711F0EB
:103CE000DF3F19F401968770F2CF189F9001199F5A
:103CF000300D1124F901E55CFD4F41814713F2CFEE
:103D000040814613EFCF42814111ECCF4381548172
:103D10004A1B5B0B483C510528F7809170028F705D
:103D2000806180937002F901E05CFD4F80818F70AB
:103D3000806180838BE692E00E948C1DDF91CF91A1
:103D40001F910C941E1EAF92BF92CF92DF92EF9202
:103D5000FF920F931F93CF93DF93CDB7DEB7619799
:103D60000FB6F894DEBF0FBECDBF8C0185E0F80121
:103D7000DE011D9601900D928A95E1F7F8014081D0
:103D80005181E2808BE6C82E82E0D82E60916E02CF
:103D900070916F026115710509F461C190916B0218
:103DA00020916C02892F82238F3F09F458C1A38090
:103DB000B480F0906D02F501E61BF70BFF2009F4CB
:103DC000FCC080917002382F307FE83CF10508F08C
:103DD000B2C0311179C0FE2C251323C0941321C029
:103DE000E1101FC08F708061809370020E943F1E9F
:103DF000C6010E948C1D80917002F80185838F2D71
:103E000061960FB6F894DEBF0FBECDBFDF91CF91A4
:103E10001F910F91FF90EF90DF90CF90BF90AF90E8
:103E20000895AB2829F0842F85238F3F09F033C1F3
:103E300080E0F82FF170DF2E80FF3CC080913902C6
:103E400020913A0236E0821315C04D875E878D853A
:103E50009E850E940723292F22952F702230F0F093
:103E6000243018F59F70F1F0F8019581907FD1F41E
:103E7000D12C1EC090E0389FF001399FF00D112425
:103E8000E55CFD4F6181651306C06081641303C06A
:103E900062816E110FC001968770D5CF9F7011F0AF
:103EA000882331F3805E883018F3C8010E948C1D8E
:103EB000FD2CA5CFEE2009F4A2CF80917002816085
:103EC00080937002F12C9BCF251306C0941304C07D
:103ED000F801EE2009F48DC04D875E878D859E85A3
:103EE0000E94FB1D882319F1EE2009F180917002D8
:103EF000803270F020916B0230916C0238872F83F2
:103F00001986BB86AA868C87CE0107960E948C1DD7
:103F100086E0F801ABE6B2E001900D928A95E1F7F8
:103F20000E944D1E0E943F1EFF24F39468CFC801DB
:103F30000E948C1DF9CF311113C07A2DB98AA88A3D
:103F40006E2D89890E94FF1D8BE692E00E948C1DD8
:103F500086E0F60111928A95E9F70E943F1EB2CFE2
:103F600025130FC094130DC0E1100BC0F801858319
:103F7000C8010E948C1D86E0F60111928A95E9F72E
:103F80003ECF4D875E878D859E850E94FB1D8823D1
:103F900071F2EE2061F280917002803208F4B8CFA5
:103FA00020916B0230916C023A8329831B82BD827F
:103FB000AC828E83CE010196A9CFE83CF10508F0D2
:103FC00041C0FE2CEE2009F4B2CF25132AC0941371
:103FD00028C08091700280FD1BC0982F907FC1F097
:103FE000F8018583903F31F0982F907F905F8F701C
:103FF000892B8583C8010E948C1D86E0F801ABE601
:10400000B2E001900D928A95E1F70E943F1EF7CE33
:1040100086E0F801ABE6B2E001900D928A95E1F7F7
:10402000EECE4D875E878D859E850E94FB1D81119A
:104030006FCF80917002816080937002C8010E94EE
:104040008C1DDDCE7A2DB98AA88A6E2D89890E94B1
:10405000FF1D86E0F60111928A95E9F7D6CFEE2092
:1040600009F465CF4D875E878D859E850E94FB1D77
:10407000F82E882309F45BCF86E0F801ABE6B2E0C6
:1040800001900D928A95E1F78BE692E00E948F1ADB
:104090000E944D1EBACF81E08E25CBCE88EC90E0F9
:1040A00008951F93CF93DF93CDB7DEB72C970FB64C
:1040B000F894DEBF0FBECDBF4F83588769877A87DC
:1040C0008B879C87CE0107960E94A31E882369F0E8
:1040D0008A859B85892B39F04F815885842F8523CC
:1040E0008F3F09F071C016E05FC086E0FE01379691
:1040F000DE01119601900D928A95E1F78A859B85E4
:10410000892B89F388859F8189238F3F61F32091D3
:104110003A0230E0C901019687709927409139022F
:104120004817190671F40E94D81D10923A02109295
:10413000390286E0EBE6F2E0DF011D928A95E9F7AD
:10414000D2CF96E0929FD001939FB00D1124A55C31
:10415000BD4FFE01319601900D929A95E1F7809343
:104160003A020E941E1EBFCF819FC0011124855CB0
:104170009D4F0E94A31E8823E9F0E09139021E9F03
:10418000F0011124E55CFD4F408151816281738112
:10419000848195810E940E1E8091390290E00196E3
:1041A00087709927809339028091390290913A0261
:1041B0008913DACF2C960FB6F894DEBF0FBECDBFB1
:1041C000DF91CF911F91089569857A858B859C85B4
:1041D0000E940E1E88CFEF92FF920F931F93CF93F2
:1041E000DF938C01892B81F0F12CEE24E394E8011C
:1041F0002196F8018491843770F4843008F05FC010
:104200008130B1F08230A1F1DF91CF911F910F91F8
:10421000FF90EF900895853709F44CC008F43DC035
:104220009CE7980F903780F78F770E94381B49C022
:104230000E5F1F4FFE01849190E2980F983060F45A
:104240008770FE2D01C0FF0F8A95EAF78F2F0E941D
:104250008D230E94E72302C00E94F71A8F2D815000
:1042600030F2EFE9FFE03197F1F700C00000F7CF3F
:104270000E5F1F4FFE01849190E2980F983050F42A
:104280008770FE2D01C0FF0F8A95EAF78F2F0E94DD
:104290009323DFCF0E94381BE1CF0E5F1F4FFE013B
:1042A000C491C150D8F28FE99FE00197F1F700C0A7
:1042B0000000F7CF0E5F1F4FFE01F490CFCF0E949A
:1042C000F71A8E01CBCF08950C9463210E946421CC
:1042D0006093930270939402809395029093960258
:1042E0000C94C21D08950C9466210F931F930091A6
:1042F0009302109194022091950230919602602BC6
:10430000712B822B932B1F910F910C9466210F938D
:104310001F93009193021091940220919502309185
:10432000960260237123822393231F910F910C9493
:1043300066210F931F930091930210919402209194
:1043400095023091960260277127822793271F914B
:104350000F910C9466210C9463210C94AB210E9464
:10436000AD2160938F02709390028093910290939D
:1043700092020C94C21D60E070E0CB010C94AF215E
:104380000F931F9341E050E060E070E08A019B01D1
:1043900004C0000F111F221F331F8A95D2F7C901D5
:1043A000B8011F910F910C94AF210F931F9341E01F
:1043B00050E060E070E004C0440F551F661F771F97
:1043C0008A95D2F780918F0290919002A0919102EC
:1043D000B09192028A019B01082B192B2A2B3B2BAF
:1043E000C901B8011F910F910C94AF210F931F9336
:1043F00041E050E060E070E004C0440F551F661FCC
:10440000771F8A95D2F7CB01BA0160957095809598
:10441000909500918F02109190022091910230911D
:10442000920260237123822393231F910F910C9496
:10443000AF210F931F9341E050E060E070E004C0B3
:10444000440F551F661F771F8A95D2F780918F0200
:1044500090919002A0919102B09192028A019B01E9
:10446000082719272A273B27C901B8011F910F9157
:104470000C94AF210F931F9300918F021091900223
:104480002091910230919202602B712B822B932B01
:104490001F910F910C94AF210F931F9300918F02E6
:1044A0001091900220919102309192026023712329
:1044B000822393231F910F910C94AF210F931F938D
:1044C00000918F02109190022091910230919202FE
:1044D00060277127822793271F910F910C94AF219A
:1044E00008952CE0929F800D1124982F977041E041
:1044F00001C0440F9A95EAF786958695869595E0D2
:10450000899FF0011124EF58FD4F90E080E070E0AA
:104510005191DF0111979B01082E02C03695279516
:104520000A94E2F7217021952527242325272C932F
:1045300001968530910561F708952CE0929F800DDA
:104540001124982F977086958695869525E0829FF1
:10455000F0011124EF58FD4F50E040E080E0219140
:1045600030E0092E02C0369527950A94E2F72170B3
:104570003327042E01C0220F0A94EAF7822B4F5FE3
:104580005F4F4530510559F70895BF92CF92DF92A2
:10459000EF92FF920F931F93CF93DF938C01C09004
:1045A0008F02D0909002E0909102F0909202809160
:1045B000930290919402A0919502B0919602C82A1C
:1045C000D92AEA2AFB2ACFE1D0E0BC2ED701C601C6
:1045D0000C2E04C0B695A795979587950A94D2F7A7
:1045E00080FD0EC0219788F7B12C8B2DDF91CF91E4
:1045F0001F910F91FF90EF90DF90CF90BF900895A3
:10460000B8018C2F0E943608019761F3EECFCF934B
:10461000DF93EC010E94C522BE01DF91CF910C9483
:1046200036081F93CF93DF93EB01909138029923C3
:1046300031F0CB01DF91CF911F910C940723882398
:1046400079F0CB010E94C522182F682FCE010E945D
:104650007122BE01812FDF91CF911F910C943608FA
:10466000CB010E949D22182FF4CF682F80911D014D
:1046700090911E010C94B025682F80911D0190919E
:104680001E010C94BB2580911D0190911E010C947C
:10469000C625809197028595859585950895809189
:1046A00097028770089590919702977081E009F4BE
:1046B00080E0089580919902882341F080911D0146
:1046C00090911E010E94BE18109299020895809147
:1046D000BC0208959091BC02892B8093BC0208957E
:1046E00080959091BC0298239093BC02089580938A
:1046F000BC0208951092BC0208959091BB02892BD0
:104700008093BB02089580959091BB02982390936B
:10471000BB0208951092BB0208959091BA02892BB2
:104720008093BA02089580959091BA02982390934D
:10473000BA0208951092BA020895809198020895DD
:1047400008950C94A02390919802981721F08093DB
:1047500098020C94A123089580919802882329F04F
:104760001092980280E00C94A1230895E0911D011D
:10477000F0911E018091BC028083E0911D01F091B7
:104780001E0180819091BB02892B8083E0911D01E5
:10479000F0911E0180819091BA02892B80839091C3
:1047A0009802992381F0E0911D01F0911E01808112
:1047B000892B808380911D0190911E010E94FA2413
:1047C00081110E94AC2381E08093990208950E9498
:1047D000B6230C945A2308950C94EB2398E0899FF8
:1047E00090011124622B609397020E94D521809141
:1047F00097028595859585950C94EC2310929702E8
:1048000080E00C94EC23909197028095892380930B
:104810009702282F277071F4282F082E000C330BD5
:104820009217130639F08595859585950E94F62196
:104830000C94FE2308959093DF018093DE01089588
:10484000829590E09C01220F331F220F331F2C7C96
:1048500095958795959587958373282B30E0C901A9
:10486000880F991F8A7A359527952575822B08958B
:10487000CF93DF93D92F0E942024C82F8D2F0E9421
:1048800020249C2FDF91CF91089590E080E00E943A
:10489000383521E08C3E9E4F09F020E0822F0895AC
:1048A00082E090E00C942A35682F82E090E00C942E
:1048B0003E3583E090E00C942A35682F83E090E049
:1048C0000C943E35CF9384E090E00E942A35C82FA7
:1048D00081E290E00E942A35982F8C2FCF91089585
:1048E000CF93C92F682F84E090E00E943E356C2F53
:1048F00081E290E0CF910C943E35AB01BC018FE09A
:1049000090E00C945035AB01BC0183E190E00C9435
:10491000503560E070E0CB010C94832460E070E0DF
:10492000CB010E947D240C9489246CEE7EEF90E0F4
:1049300080E00E945C3560E082E090E00E943E35BD
:1049400060E083E090E00E943E3510929302109266
:104950009402109295021092960260E084E090E03A
:104960000E943E3560E081E290E00E943E3560E0CA
:1049700085E090E00E943E3560E086E090E00E9495
:104980003E356FEF87E090E00E943E3540E050E01A
:10499000BA0188E090E00E94503560E08DE090E040
:1049A0000E943E3540E050E0BA0188E190E00E946C
:1049B000503560E087E190E00E943E3540E050E0F5
:1049C000BA018CE190E00E94503560E080E290E016
:1049D0000E943E3540E050E0BA0188E190E00E943C
:1049E00050350C948E240C949524682F8EE090E022
:1049F0000C943E35FC01329680913101882321F0E0
:104A000080912F039EE187FF96E080E0915008F4AB
:104A1000089521912223D1F38F5FF8CF662301F10E
:104A2000209131012223F1F020912F0327FF1AC09A
:104A3000462F4695469546954E3190F4677021E095
:104A400030E002C0220F331F6A95E2F7840F911DF8
:104A5000FC01828190E02823392381E0232B69F433
:104A600080E00895FC01329608962191261721F0E6
:104A7000E817F907D1F7F4CF81E008959C01FC0114
:104A800032969FEF80E04191461751F09F3F19F415
:104A9000411101C0982F8F5F8630A9F79F3F09F41D
:104AA0000895290F311D97FD3A95F9016283089504
:104AB000FC01329608962191261303C0DF0111975D
:104AC0001C92E817F907B9F70895E62FE695E695E1
:104AD000E695EE3170F4E80FF92FF11D677021E0D3
:104AE00030E001C0220F6A95EAF78281822B82832F
:104AF00008958091BD0280FF0CC01F926F9382E3E6
:104B000099E09F938F930E94BB060F900F900F9098
:104B10000F900895E62FE695E695E695EE3178F448
:104B2000E80FF92FF11D677021E030E001C0220F7E
:104B30006A95EAF72095828128232283089580913F
:104B4000BD0280FF0CC01F926F9384E199E09F9398
:104B50008F930E94BB060F900F900F900F900895B7
:104B600020913101222329F020912F0327FD0C945D
:104B700065250C943E2520913101222329F02091B6
:104B80002F0327FD0C948A250C945825FC0132969E
:104B900080913101882351F080912F0387FF06C057
:104BA0008EE1DF011D928A95E9F7089586E0F9CF3D
:104BB000089508950C94D9250E94DA258091350333
:104BC000843009F439C01092BE0288E190E020E4FC
:104BD0000FB6F894A895809360000FBE20936000F4
:104BE00080E00E94A0070E94C2128091BF02811142
:104BF0000AC081E08093BF0280910303817080939B
:104C0000C0020E9430140E94DA2583B7817F84603D
:104C100083BF83B7816083BF7894889583B78E7F85
:104C200083BF0FB6F894A895809160008861809347
:104C30006000109260000FBE08950895CF930E9407
:104C4000D8250E94D40A0E941D26C0E08C2F0E9405
:104C50002B0A892B31F4CF5FC430C1F780E0CF91AC
:104C6000089581E0FCCF08950C9433260E94D81D4E
:104C70000E94B2180E94A0071092BF028091C00249
:104C800081110E94CB130E94A0120C9434261F9213
:104C90001FB61F9211248F939F93AF93BF93809160
:104CA000BE02811113C080912B0390912C03A0911F
:104CB0002D03B0912E034196A11DB11D80932B03AE
:104CC00090932C03A0932D03B0932E03BF91AF912B
:104CD0009F918F911F901FBE1F90189582E084BDF9
:104CE00093E095BD9AEF97BD80936E0008952FB71E
:104CF000F89480912B0390912C03A0912D03B091F7
:104D00002E032FBF08959C014FB7F89480912B0379
:104D100090912C03A0912D03B0912E034FBF821BC5
:104D2000930B089578941F921FB61F9211248F93AE
:104D30009F93AF93BF9380912B0390912C03A091ED
:104D40002D03B0912E030196A11DB11D80932B035D
:104D500090932C03A0932D03B0932E03BF91AF919A
:104D60009F918F911F901FBE1F90189581E0809397
:104D7000E00080E28093D8001092C9008FE19EE4A9
:104D80000197F1F700C0000087E090EBDC01809311
:104D9000420390934303A0934403B093450388E1F7
:104DA0009CE00FB6F894A895809360000FBE909396
:104DB0006000FFCFAF92BF92CF92DF92EF92FF924F
:104DC0000F931F93CF93C0E0CC24C394D12CE82E33
:104DD000F12C8C2F0E942B0A5C0110E000E0C60130
:104DE000002E02C0880F991F0A94E2F78A219B21A6
:104DF000892B99F40F5F1F4F0C30110581F7CF5F9E
:104E0000C43039F780E0CF911F910F91FF90EF9060
:104E1000DF90CF90BF90AF900895602F7C2F80E0FF
:104E20000E941A08E816F90629F781E0ECCFCF9323
:104E3000C82F8CE20E94DA26882321F08C2FCF9194
:104E40000C94DA2680E0CF910895CF930E944524F8
:104E5000811102C00E94F32487E599E00E94220696
:104E6000C5E6C15009F0F1C080E599E00E94220634
:104E700089E20E941727811114C18AE20E94172734
:104E800081110E94F32485E00E94172781110E945E
:104E9000B6260E9450248093BD0287E00E94172707
:104EA000882371F08BE10E941727882309F4D6C06C
:104EB0009091BD02892F8D7F91FF82608093BD020A
:104EC0008091BD020E9454240E946224909330037A
:104ED00080932F0380EE0E941727882341F0909142
:104EE0002F03892F8E7F90FF816080932F0389E3AA
:104EF0000E941727882341F090912F03892F8D7FDF
:104F000091FF826080932F0382EE0E9417278823EF
:104F100041F090912F03892F8B7F92FF84608093C3
:104F20002F0386EE0E941727882341F090912F03CC
:104F3000892F877F93FF886080932F0383EE0E94E1
:104F40001727882341F090912F03892F8F7E94FF9C
:104F5000806180932F0385E30E941727882341F007
:104F600090912F03892F8F7D95FF806280932F036F
:104F700081E30E941727882341F090912F03892F06
:104F80008F7B96FF806480932F0381E10E94172717
:104F9000882341F090912F03892F97FB87F9805840
:104FA00080932F0380912F03909130030E947024EF
:104FB00087E20E941727C82F8EE10E9417278111D0
:104FC000C2608FE10E9417278111C46080E20E94B5
:104FD00017278111C86081E20E9417278111C061E3
:104FE00082E20E9417278111C06283E20E94172784
:104FF0008111C06484E20E941727882309F44BC002
:10500000C0688C2F0E945D246C2F70E090E080E0DF
:105010000E94732160918F027091900280919102A1
:10502000909192020E94AD218FE00E941727882361
:1050300019F081E00E94F52485E10E94172788235A
:1050400081F180E0CF910C94F5240E94D40A8FE383
:105050009CE90197F1F700C0000003CF8EE00E94A9
:105060001727882339F09091BD02892F8B7F92FFFB
:10507000846024CF80E10E9417279091BD0288238D
:1050800029F0892F877F93FF886018CF892F8E7F23
:1050900090FF816013CFC111B4CF0E945924682FB3
:1050A000B4CFCF9108958091C70280FF12C0609164
:1050B000240185E0689FB001112475956795759569
:1050C000679560387105A8F561157105A1F1862F06
:1050D000089581FF09C06091240185E0689FB001B7
:1050E000112475956795EDCF6091240182FD0AC06A
:1050F0008091C6028823D1F0909123016091240110
:10510000891728F085E0689FB0011124DACF869FC7
:10511000B001112485E0869F9001879F300D1124F6
:10512000692F70E0C9010E942933CBCF65E070E0A0
:10513000CECF8FE7089581E008958091C70280FF68
:105140000CC06091200170E0759567957595679525
:105150006115710549F1862F089581FF06C06091A0
:10516000200170E075956795F3CF6091200182FD75
:105170000BC09091C5029923A1F060911F0180910D
:105180002001961738F0682F70E06038710500F341
:105190008FE70895899FC001112470E00E94293390
:1051A000F4CF61E070E0D7CF81E00895803F31F423
:1051B0000E94532881958093CB020895813F19F472
:1051C0000E945328F8CF823F31F40E9453288195E2
:1051D0008093CA020895833F19F40E945328F8CFA0
:1051E000893F29F40E949D288093CC0208958A3F2C
:1051F00021F40E949D288195F7CF8B3F31F40E94C6
:105200009D2881958093CD0208958C3F19F40E94CA
:105210009D28F8CF843F31F48091C902816080934A
:10522000C9020895853F21F48091C9028260F7CFB9
:10523000863F21F48091C9028460F1CF873F21F439
:105240008091C9028860EBCF883F21F48091C90228
:105250008061E5CF8D3F31F48091C70281608093FA
:10526000C70208958E3F21F48091C7028260F7CF74
:105270008F3FB9F78091C7028460F1CF9091CA0245
:10528000803F59F48091CB0287FF0DC01092CB0272
:1052900091110BC01092C60208C0813F81F4809129
:1052A000CB0218169CF3992381F08091CC02909147
:1052B000CD02892B09F064C01092C5020895823F87
:1052C00049F497FFF0CF1092CA028091CB0281116E
:1052D000ECCFE0CF833F19F41916ACF3E4CF209163
:1052E000CC02893F29F41216F4F61092CC02DBCFDF
:1052F0008A3F19F427FFD7CFF8CF2091CD028B3FFB
:1053000029F427FFD0CF1092CD02CDCF8C3F19F4D6
:105310001216CCF3C8CF843F31F48091C9028E7F3E
:105320008093C902C0CF853F21F48091C9028D7F4F
:10533000F7CF863F21F48091C9028B7FF1CF873F61
:1053400021F48091C902877FEBCF883F21F48091BF
:10535000C9028F7EE5CF8D3F31F48091C7028E7FE9
:105360008093C702A0CF8E3F21F48091C7028D7F2A
:10537000F7CF8F3F09F097CF8091C7028B7FF0CF97
:1053800008958091BD0283FF7EC083E999E00E9469
:1053900022068091C9021F928F938EE899E09F9315
:1053A0008F930E94BB068CE899E00E9422068091B0
:1053B000CA02282F082E000C330B3F938F9389E8E5
:1053C00099E09F938F930E94BB0687E899E00E9423
:1053D00022068091CB02282F082E000C330B3F931E
:1053E0008F9384E899E09F938F930E94BB0682E895
:1053F00099E00E9422068091CC02282F082E000CF2
:10540000330B3F938F938FE799E09F938F930E9485
:10541000BB068DE799E00E9422068091CD02282FDD
:10542000082E000C330B3F938F938AE799E09F93EC
:105430008F930E94BB0687E799E00E942206809125
:10544000C6021F928F9384E799E09F938F930E94E7
:10545000BB0682E799E00E9422068091C7021F9254
:105460008F938FE699E09F938F930E94BB068CE603
:1054700099E00E9422068DB79EB74C960FB6F8941D
:105480009EBF0FBE8DBF0E9477269C019091CA02DD
:105490008091CB02982B21F03093C4022093C30259
:1054A0009091CC028091CD02982B21F03093C202D2
:1054B0002093C10288EC92E00C941919EF92FF92AC
:1054C0000F931F93CF93DF9300D000D000D0CDB7C0
:1054D000DEB786E0E8ECF2E0DE01119601900D9275
:1054E0008A95E1F7E090CA02F090CB020091CC02DD
:1054F0001091CD021092CA021092CB021092CC02EF
:105500001092CD028E2D8F2991F08091C30290913F
:10551000C4020E948326AC019091C602992309F42B
:105520003FC0809125018417150608F447C0802FDD
:10553000812B91F08091C1029091C2020E9483263A
:10554000AC019091C502992309F477C080912101A3
:105550008417150608F47FC08091CA029091CB028F
:10556000892B9091CC02892B9091CD02892B11F03F
:105570000E94C12986E0FE013196A8ECB2E00190BC
:105580000D928A95E1F726960FB6F894DEBF0FBE0E
:10559000CDBFDF91CF911F910F91FF90EF900895B4
:1055A000209126018AE0289F9001112424173507B5
:1055B00008F0BDCF9F5F9093C60202C09F3FD1F716
:1055C000EE2059F00E9453289FEF1E140CF491E036
:1055D000899F802D11248093CA02FF2059F00E94D8
:1055E00053289FEF1F140CF491E0899F802D112404
:1055F0008093CB023091CA02332309F498CF2091D3
:10560000CB02222309F493CF45EB3403C0011124CC
:10561000992359F09093CA0245EB24039001112479
:10562000332339F03093CB0282CF81E08093CA02DA
:10563000F3CF81E08093CB027ACF209122018AE0E0
:10564000289F900111242417350708F085CF9F5F0C
:105650009093C50202C09F3FD1F7002359F00E94EA
:105660009D289FEF10160CF491E0899F802D112446
:105670008093CC02112359F00E949D289FEF1116B0
:105680000CF491E0899F802D11248093CD023091FC
:10569000CC02332309F460CF2091CD02222309F4F8
:1056A0005BCF45EB3403C0011124992359F090934B
:1056B000CC0245EB240390011124332339F03093BD
:1056C000CD024ACF81E08093CC02F3CF81E080937A
:1056D000CD0242CF86E0E8ECF2E0DF011D928A9530
:1056E000E9F71092C6021092C5021092C7020895FF
:1056F0008091F10208959FB7F8941092D0029FBF55
:1057000090913503943009F048C02091E9002F7042
:105710003091EC00932F917030FD90E8922B23E0B4
:105720002093E9002091EB0020FF34C02091EE008F
:1057300027FF30C02091CE02222321F02091E800E3
:1057400025FF28C01092CE0226E03091E80035FFF8
:1057500014C08093F1008091E80085FD27C08091FE
:10576000E80080FFFCCF8091E8008E778093E8000E
:105770009F709093E90080E00895309135033430B4
:1057800049F43091EB0035FD05C0215041F481E032
:105790008093CE029F709093E9008FEF0895EFE918
:1057A000FFE03197F1F700C00000CFCF8FB7F8943A
:1057B00021E02093D0028FBFDBCFCF93DF9300D0C7
:1057C0000F92CDB7DEB790913503943019F58983E8
:1057D0007B836A8382E08093E9008FEF9091E800F9
:1057E000815095FD06C095ED9A95F1F70000811165
:1057F000F5CF8091E80085FF0DC050E040E063E008
:1058000070E0CE0101960E946B2E8091E8008E77A9
:105810008093E8000F900F900F90DF91CF91089543
:10582000BC0184E00C94DD2BBC0183E00C94DD2BE7
:105830009C0182E08093E9009FEF8091E800915005
:1058400085FD06C085ED8A95F1F700009111F5CF31
:105850008091E80085FF0CC050E040E066E070E019
:10586000C9010E946B2E8091E8008E778093E8003A
:105870000895CF93DF93EC01809131018823B1F13A
:1058800080912F0387FF32C060E282E08093E900BD
:105890008FEF9091E800815095FD06C095ED9A95A7
:1058A000F1F700008111F5CF8091E80085FF1BC062
:1058B0008091310170E050E040E0811104C050E07F
:1058C00040E068E070E0CE010E946B2E8091E8001D
:1058D0008E778093E80080E2FE01A1EDB2E00190B6
:1058E0000D928A95E1F7DF91CF91089568E081E00C
:1058F000CDCF8BED99E00E94220680913403811177
:1059000009C00E94FB2F0E9458308091E200846001
:105910008093E200089587ED99E00E94220610929C
:105920003403089583ED99E00C9422068FEC99E0FE
:105930000C9422068BEC99E00E9422060C943626E9
:105940002091CF022F5F822F62E30E94FB329923C6
:1059500019F02093CF0208951092CF028091D002C7
:105960008823F1F0809135038430C1F49091E900EF
:105970009F702091EC00822F817020FD80E8892BA0
:1059800093E09093E9009091EB0090FF04C0909118
:10599000EE0097FD08C08F708093E9001092D0024E
:1059A00008951092F1009091E80095FDFACF909142
:1059B000E80090FFF0CF9091E8009E779093E80088
:1059C000EACF42E061EC81E00E94772F42E261EC95
:1059D00082E00E94772F42E261EC83E00C94772F03
:1059E00080913703833009F45FC030F48130C1F116
:1059F000823009F49BC008958A3009F487C08B3047
:105A000009F46DC0893009F04EC0809136038132AF
:105A100009F049C080913A0390913B03029708F046
:105A200042C08091E800877F8093E8008091E80081
:105A300082FF35C09091F3008091F200029729F423
:105A40008091F1008B7F813021F48091F10080936F
:105A5000F1028091E8008B778093E8000C94AB2FE3
:105A600080913603813AF9F48091E800877F809332
:105A7000E80080913A0390913B03892B61F460E246
:105A800081ED92E070E00E94BA2E8091E8008B7761
:105A90008093E800089560E090E080E0F3CF80918B
:105AA00035038111C3CF089580913603813AD9F728
:105AB00080913A0390913B03892BA9F78091E800EC
:105AC000877F8093E8008091E80080FFFCCF809181
:105AD00031018093F1008091E8008E77BDCF8091F5
