:100000000C94CC050C9413060C9413060C94130654
:100010000C9413060C9413060C9413060C941306FC
:100020000C9413060C9413060C946D2E0C94412F13
:100030000C9427240C9413060C9413060C941306AA
:100040000C9413060C9413060C9413060C941306CC
:100050000C9413060C9472240C9413060C9413063F
:100060000C9413060C9413060C9413060C941306AC
:100070000C9413060C9413060C9413060C9413069C
:100080000C9413060C9413060C9413060C9413068C
:100090000C9413060C9413060C9413060C9413067C
:1000A0000C9413060C9413060C94130629001400E8
:1000B0001A000800150017001C0018000C001200A0
:1000C00013002A002B0004001600070009000A0094
:1000D0000B000D000E000F0000002800E1001D00C5
:1000E0001B00060019000500110010003600520028
:1000F00000003700E000E300E2002C0000000251A5
:10010000000001515000510000004F001E001F0070
:1001100020002100220023002400250026002700C3
:1001200046004C00AE00AC00AB00A8000000000090
:10013000000000002D002E0000000000E100AA00D9
:10014000A900BE00BD0000000000000049004B00F7
:100150000000E500035304531550000000000000A8
:10016000000001004A004E0000004D003A003B0034
:100170003C003D003E003F00400041004200430083
:1001800044004500F400F500F600F700F800000018
:100190000000FD00FE00FF0000000000E100000084
:1001A0000000B20000000000FB00F900FC00F000BD
:1001B00000000000E0000000E2000000000001007C
:1001C0000000FA00F200F1000000F30014001A0031
:1001D0000800150000003C003D00000018000C0065
:1001E0001200130000000000070009000000A80032
:1001F000000000000D000E0000002800E1001D00BE
:100200001B00000029003500000006001900520004
:1002100000000353E000E300E200170000001C00B0
:10022000000000005000510000004F0006001900BF
:100230001D001B0000000000000000000600190067
:100240001D001B002B00000000000000000000004B
:10025000000000000000000000002800E100000095
:1002600000000000290035000000000000005200DE
:1002700000000453E000E300E2002C000000E60070
:10028000000000005000510000004F00005C000022
:10029000000000000000000000000000000000005E
:1002A0000000145C00000000C35CC55CC75CC95C56
:1002B000CB5C00000000000000000000C25CC45CD9
:1002C000C65CC85CCA5CCC5C00000000000000009A
:1002D00000000553000000000100000000000000C5
:1002E00000000000000000000000000044454255EE
:1002F000473A2064697361626C65642E0A00444564
:100300004255473A20656E61626C65642E0A000AA8
:10031000002530313662003A200025303258000A7C
:10032000722F632030313233343536373839414219
:10033000434445460A007267626C696768742074BA
:10034000696D65722064697361626C652E0A007262
:1003500067626C696768742074696D657220656E88
:1003600061626C65642E0A007267626C696768740A
:100370002073657420687376205B4E4F454550525C
:100380004F4D5D3A2025752C25752C25750A007278
:1003900067626C696768742073657420687376207F
:1003A0005B454550524F4D5D3A2025752C25752CE7
:1003B00025750A007267626C6967687420726169EA
:1003C0006E626F7720736574206873763A202564B7
:1003D0002C25642C25642C25750A007267626C69D3
:1003E0006768742064697361626C65205B4E4F4579
:1003F0004550524F4D5D3A207267626C6967687470
:100400005F636F6E6669672E656E61626C65203D25
:100410002025750A007267626C69676874206469D8
:100420007361626C65205B454550524F4D5D3A20CB
:100430007267626C696768745F636F6E6669672E66
:10044000656E61626C65203D2025750A00726762E9
:100450006C6967687420656E61626C65205B4E4FE5
:10046000454550524F4D5D3A207267626C6967682E
:10047000745F636F6E6669672E656E61626C65207E
:100480003D2025750A007267626C69676874206593
:100490006E61626C65205B454550524F4D5D3A2060
:1004A0007267626C696768745F636F6E6669672EF6
:1004B000656E61626C65203D2025750A0072676279
:1004C0006C6967687420746F67676C65205B45456D
:1004D00050524F4D5D3A207267626C696768745F75
:1004E000636F6E6669672E656E61626C65203D2084
:1004F00025750A007267626C69676874206D6F64A5
:1005000065205B4E4F454550524F4D5D3A20257555
:100510000A007267626C69676874206D6F64652099
:100520005B454550524F4D5D3A2025750A00726774
:10053000626C696768745F696E6974207267626C67
:10054000696768745F636F6E6669672E6D6F646557
:10055000203D20302E2057726974652064656661E5
:10056000756C742076616C75657320746F204545D9
:1005700050524F4D2E0A007267626C696768745F53
:10058000696E6974206565636F6E6669672069735B
:10059000206E6F7420656E61626C65642E0A007255
:1005A00067626C696768745F696E697420737461EF
:1005B0007274210A007267626C696768745F696EA1
:1005C00069742063616C6C65642E0A007267626CEA
:1005D000696768745F636F6E6669672E73706565BF
:1005E00064203D2025640A007267626C6967687444
:1005F0005F636F6E6669672E76616C203D202564AF
:100600000A007267626C696768745F636F6E66691F
:10061000672E736174203D2025640A007267626C46
:10062000696768745F636F6E6669672E68756520B9
:100630003D2025640A007267686C696768745F63AF
:100640006F6E6669672E6D6F6465203D2025640AB4
:10065000007267626C696768745F636F6E66696772
:100660002E656E61626C65203D2025640A0072670C
:10067000626C696768745F636F6E66696720454581
:1006800050524F4D3A0A0000047F3F1F64321464F9
:100690003214783C1E1E140A052223252628292AF6
:1006A0002C2D2F3032333536383A3B3D3E404243D5
:1006B0004547494A4C4E5051535557595A5C5E6014
:1006C00062646668696B6D6F71737577797B7D7F26
:1006D00081838587898A8C8E90929496989A9C9E25
:1006E0009FA1A3A5A7A8AAACAEAFB1B3B4B6B8B941
:1006F000BBBCBEBFC1C2C3C5C6C7C9CACBCCCDCEA9
:10070000D0D1D2D2D3D4D5D6D7D7D8D9D9DADADB8B
:10071000DBDBDCDCDCDCDCDDDDDDDDDCDCDCDCDC17
:10072000DBDBDBDADAD9D9D8D7D7D6D5D4D3D2D256
:10073000D1D0CECDCCCBCAC9C7C6C5C3C2C1BFBE3E
:10074000BCBBB9B8B6B4B3B1AFAEACAAA8A7A5A3A9
:10075000A19F9E9C9A98969492908E8C8A89878568
:1007600083817F7D7B79777573716F6D6B69686647
:100770006462605E5C5A5957555351504E4C4A4919
:1007800047454342403E3D3B3A3836353332302FC1
:100790002D2C2A292826252322FFAA7F5540000137
:1007A0000101010101010101020202020202020231
:1007B0000203030303030303030404040404040403
:1007C00005050505050606060606070707070708C7
:1007D000080808090909090A0A0A0B0B0B0C0C0C7A
:1007E0000D0D0D0E0E0E0F0F0F1010111111121214
:1007F00013131414151516161717181819191A1A91
:100800001B1B1C1D1D1E1E1F2020212222232424F1
:10081000252626272829292A2B2C2D2D2E2F30312D
:100820003232333435363738393A3B3C3D3E3F403F
:100830004142434445464748494A4C4D4E4F50512A
:100840005354555658595A5B5D5E5F6162646566E4
:1008500068696B6C6D6F7072737577787A7B7D7E6B
:100860008082838587888A8C8E8F91939596989ABB
:100870009C9EA0A2A3A5A7A9ABADAFB1B3B5B7BAD3
:10088000BCBEC0C2C4C6C9CBCDCFD1D4D6D8DBDDA7
:10089000DFE2E4E7E9EBEEF0F3F5F8FAFDFF556E81
:1008A00069636F646520696E707574206D6F64652F
:1008B0002073657420746F3A2025750A00556E699F
:1008C000636F646520696E707574206D6F64652058
:1008D000696E697420746F3A2025750A000A002534
:1008E00030325820006B6579626F6172645F7265A7
:1008F000706F72743A20000A0025303258006B6520
:1009000079626F6172645F7365745F6C65643A20CD
:100910000064656C5F6B65795F6269743A2063613E
:100920006E27742064656C3A20253032580A0061C5
:1009300064645F6B65795F6269743A2063616E27F6
:1009400074206164643A20253032580A00646F6E66
:10095000652E0A00626F6F746D616769632073634F
:10096000616E3A202E2E2E2000290A002575002FB8
:10097000002575005D280025640020002564002006
:100980000025640020002564007C002530325800DA
:100990006D6F7573656B6579205B62746E7C782012
:1009A00079207620685D287265702F61636C293A22
:1009B000205B005B735D004B6579626F6172642040
:1009C00073746172742E0A005B575D005B535D00A7
:1009D0005B525D005B445D005B435D0004033000DF
:1009E00000000C0342004D003400330041000000C1
:1009F00016034B0050005200650070007500620045
:100A00006C006900630000000403090409025B0034
:100A1000030100A0FA0904000001030101000921FB
:100A2000110100012240000705810308000A0904A2
:100A30000100010300000009211101000122BC0096
:100A40000705820320000A090402000203000000D7
:100A50000921110100012222000705830320000162
:100A6000070503032000011201100100000008ED3A
:100A7000FE00000100010203010631FF0974A1011B
:100A80000975150026FF0095207508810209761565
:100A90000026FF00952075089102C005010902A1FA
:100AA0000185020901A10005091901290515002583
:100AB0000195057501810295017503810105010903
:100AC0003009311581257F95027508810609381591
:100AD00081257F950175088106050C0A380215816C
:100AE000257F950175088106C0C005010980A10117
:100AF000850319012AB700150126B7009501751065
:100B00008100C0050C0901A101850419012AA00278
:100B1000150126A002950175108100C00501090686
:100B2000A1018505050719E029E7150025019508AC
:100B3000750181020507190029EF1500250195F0BF
:100B400075018102050819012905950575019102B4
:100B5000950175039101C005010906A10105071959
:100B6000E029E715002501950875018102950175B9
:100B70000881010507190029FF150026FF009506C9
:100B8000750881000508190129059505750191026F
:100B9000950175039101C00011241FBECFEFDAE06B
:100BA000DEBFCDBF04B603FE27C08091FB0290914B
:100BB000FC02A091FD02B091FE028730904BA7404D
:100BC000B04BD1F41092FB021092FC021092FD0285
:100BD0001092FE0214BE84B7877F84BF0FB6F894CC
:100BE000A8958091600088618093600010926000F9
:100BF0000FBEE0E0F8E3099511E0A0E0B1E0EAE91A
:100C0000F3E602C005900D92AE3CB107D9F722E0A1
:100C1000AEECB1E001C01D92AB3FB207E1F70E941C
:100C2000932B0C948F310C940000FF93EF93E09181
:100C3000CE01F091CF01309709F00995EF91FF9126
:100C40000895FC018591803011F0EFDFFBCF08950E
:100C5000FF27E0E230E247FF0CC0419597FF09C053
:100C6000EDE26095709580959095611D711D811DD7
:100C7000911D27FF02C0219530E350E2AA27660F9D
:100C8000771F881F991FAA1FA41710F0A41B639534
:100C90005A95A9F7AA3008F0A95FA05DAF93F39524
:100CA000611571058105910541F7ED3211F4EF935E
:100CB000F395F21718F43F93F395FBCF8F91B5DFBF
:100CC000FA95E1F70895E991F9918591803021F045
:100CD000853219F0AADFF9CF089520E0E894559104
:100CE0005532C1F3503311F4689455915A3348F496
:100CF000505390F3220F022E220F220F200D250FAA
:100D0000F4CF0EF4219589919991533619F3533705
:100D100029F1533559F1BC0188279927E8945C36AD
:100D200021F48991999168945591543639F446EF9C
:100D30007EF077FF0DC08FEF9FEF0AC055374AE076
:100D400039F0583540E121F0523642E009F008957B
:100D5000FF93EF937DDFEF91FF91B7CFFF93EF9379
:100D6000FC0181918030B9F360DFFBCFFF93EF93FB
:100D700068DFF1CFDF93CF93CDB7DEB72596A3DF42
:100D8000CF91DF910895CF93DF939C013A95211580
:100D90003F4168F5EC01CC27D170DC01AA27B27085
:100DA000AC01442754709C012227387094FF11C075
:100DB00080E1CD2B09F480E0AB2B09F08062452B5C
:100DC00009F08064232B09F08068FB01DF91CF914B
:100DD000099481E0CD2B09F480E0AB2B09F082600F
:100DE000452B09F08460232B81F38860EECFDF91DF
:100DF000CF910895CF93DF93EC01805E910908971E
:100E000020F06DEA7BE1209711F460E279E1CE01F8
:100E10000E94C3068C2FDF91CF910C949018CF9332
:100E2000DF93EC010E94DE18CE01805E91090897E5
:100E300020F064EB7BE1209711F467E279E1CE01C9
:100E4000DF91CF910C94C306CF93DF93EC010E9406
:100E5000FA06CE01DF91CF910C940F0781E008953F
:100E600081E008950C94300708950C9434071F9383
:100E7000CF93DF9300D000D00F92CDB7DEB7498378
:100E80005A836B833091F20189819A8131111DC09F
:100E90006623B9F02223A9F00E94BB20182F682FE7
:100EA00089819A810E94672069817A81812F0F90C0
:100EB0000F900F900F900F90DF91CF911F910C9496
:100EC00019080E949320182FEFCF0E94BB20698140
:100ED0007A81EDCFFC01262F40815181628173819F
:100EE00084810C943707CF93DF93EC0160E00E947C
:100EF0006A07BE01DF91CF910C9435070E942C2226
:100F0000811102C00E94D3220E94F2130C94250A80
:100F10000C94280A282F2F7041F0822F90E02A305D
:100F200010F44D9608950697089587E290E008958D
:100F300008950C94980781E008950C949B07CF9333
:100F4000C82F0E9499078C2FCF910C949D0708956C
:100F50000E94D11B0E94A7072FEF84E39CE0215041
:100F600080409040E1F700C000000C9496240F935D
:100F70001F93CF93DF93EC0161E00E946A078C011D
:100F8000BE010E943207882371F1BE01C8010E9490
:100F90009114882341F1BE01C8010E9430158823B5
:100FA00011F1BE01C8010E9471158823E1F0BE0154
:100FB000C8010E9494168823B1F0BE01C8010E94A6
:100FC0002E13882381F08A81882341F101308CE53A
:100FD000180779F00E3D8CE51807E9F001151C455E
:100FE000E9F40E94A80780E0DF91CF911F910F9153
:100FF000089590917602892F8E7F90FF8160809373
:10100000760280FF05C08EEF92E00E942106EBCFB2
:101010008CEE92E0FACF0E94D322E5CFCE01DF9191
:10102000CF911F910F910C942E0790E080E00895CE
:101030000895972F70E02CE0929F600D711D112490
:10104000FB0190E3899FE00DF11D1124EE0FFF1FBE
:10105000E455FF4F859194910895FC01EE0FFF1F19
:10106000E15FFC4F859194910895CF93DF930E94A7
:1010700019080E944A09EC01811520E5920708F041
:1010800042C0811530E4930708F0BDC0883E910549
:1010900028F5803E910508F09DC0883A910588F4B6
:1010A000853A910508F08FC08130910509F492C00E
:1010B000009709F48FC0049708F08CC0D0E0C0E01E
:1010C00089C08F3B910508F489C0805C9109C03CC0
:1010D000D105A0F30E942D08EC017CC0811590423F
:1010E00050F4C11581E0D80708F074C0C03FD105A5
:1010F00028F3D0656FC0C11590E3D90708F079C017
:10110000CE019F70E7CF811525E5920758F581152F
:1011100034E5930708F0A6C0811542E5940750F422
:10112000C11581E5D80708F471C0DC2FCC27C16F49
:10113000D06A50C0982F969596959E0123703327BC
:10114000C115D34508F07FC0C1E0D0E002C0CC0F8C
:10115000DD1F2A95E2F720E2929FC0011124C82BDF
:10116000D92B6FC0C11589E5D807A8F4C11598E53A
:10117000D90708F07CC0C11526E5D20708F09ECF3C
:101180008C2F0E94E109C82FD0E0DC2FCC27CC2780
:10119000DF71D0621FC0C1153AE5D30708F46CC0F7
:1011A000CE0190568115904208F088CF8D2F8F7117
:1011B0000E94E10990E0982F882788279F719C0161
:1011C0002C2BE901E6CFC55AD0E0CB5ADE4FC881BF
:1011D000D0E0D064CE01DF91CF910895C85AD0E01D
:1011E000CC0FDD1FC95DDE4F0990D881C02DD464BE
:1011F000F1CFCE019927D3FF03C0EC01D86CEACF21
:10120000EC01D06CE7CFDF70D06AE4CFCE01E4E030
:1012100096958795EA95E1F783702C2F269526956C
:10122000237090E2299F90011124382B8C2F83701A
:10123000C1E0D0E002C0CC0FDD1F8A95E2F7C22BDF
:10124000D32BDC68C7CFC1E0D0E002C0CC0FDD1FDC
:101250002A95E2F730E2939FC0011124C82BD92BC5
:10126000DA68B8CFD82FCC27C46FD06AB3CFDC2FC1
:10127000CC27C06FD06AAECF8C2F8F700E94E1094F
:1012800034E0D695C7953A95E1F7CF709C2FEC01E5
:10129000D069A0CF82389105B1F1B0F481339105C6
:1012A00009F475C048F48932910509F469C08A329D
:1012B000910509F473C008958533910509F459C067
:1012C0008933910501F10895833E9105A9F138F420
:1012D000803E9105F9F0823E910549F10895863EE0
:1012E0009105A9F1873E9105C9F1843E910519F553
:1012F0002091ED0221FF1FC08091EC0284FD14C0FB
:1013000087EE90E008952091EC022370A1F080EE2A
:1013100090E008952091EC0220FD47C03091ED024D
:1013200030FF09C024FF44C090E080E004C0209159
:10133000EC0222FDF7CF08952091EC0222FD3BC084
:101340003091ED0230FDE3CF24FFF5CFEDCF2091BA
:10135000EC0223FFF0CF24FDE7CFD2CF2091EC02A7
:1013600023FD2CC03091ED0231FFEECF84EE90E0F2
:1013700008952091EC0225FFDECF89E290E00895E8
:101380002091EC0225FFD7CF85E390E008952091CE
:10139000EC0226FFD0CF8AE290E008952091EC0283
:1013A00026FFC9CF81E390E0089589E390E0089596
:1013B00083EE90E0089582EE90E0089586EE90E04E
:1013C00008959091EC0292FF06C0282F28712830D2
:1013D000F9F4877F846093FF06C0282F2871283195
:1013E000F1F4877E84612091ED0220FF06C0382F42
:1013F00038713830D9F4877F816021FF06C0282FEB
:1014000028712831D1F4877E816194FD877E08950B
:10141000282F24712430F9F68B7F8860DCCF282FA9
:101420002471243101F78B7E8861DDCF382F317133
:10143000313019F78E7F8860E0CF282F217121315C
:1014400021F78E7E8861E1CF08950C94240A0895D7
:101450000C94270AE82FF0E0EE0FFF1FEA54FD4F2F
:10146000808191810895CF92DF92EF92FF920F9346
:101470001F93CF93DF938FE193E00E94210686EBC9
:10148000E82E82E0F82ED0E0C0E09AE1C92E93E089
:10149000D92E01E113E0DF93CF93DF92CF920E9428
:1014A000BA0687E193E00E942106F70181919191AC
:1014B0007F010E941F229F938F931F930F930E947F
:1014C000BA068FE093E00E94210621968DB79EB761
:1014D00008960FB6F8949EBF0FBE8DBFC430D105DD
:1014E000D1F6DF91CF911F910F91FF90EF90DF9098
:1014F000CF90089580EA8A95F1F70895CF93DF930E
:10150000A4E6B1E048E651E0C1E0D0E08D91E82FDB
:10151000E295EF70F0E061A18F709E0101C0220F93
:101520008A95EAF7922F9095962391A382A1822B18
:1015300082A34A175B0751F7A8E5B1E044E651E002
:10154000C1E0D0E08D91E82FE295EF70F0E061A16D
:101550008F709E0101C0220F8A95EAF7922F909515
:10156000962391A382A1822B82A34A175B0751F78E
:101570001092AF021092AE021092B7021092B60211
:101580001092B1021092B0021092B9021092B802F9
:101590001092B3021092B2021092BB021092BA02E1
:1015A0001092B5021092B4021092BD021092BC02C9
:1015B00084E00E94770BDF91CF910C947E074F92CD
:1015C0005F926F927F928F929F92AF92BF92CF92D3
:1015D000DF92EF92FF920F931F93CF93DF930EEA68
:1015E00012E094E6C92E91E0D92E912CAA24A3945E
:1015F000B12CD8016D907C90F801119211928F015D
:10160000D6018D916D01C82FC295CF70D0E099A100
:101610008F70750101C0EE0C8A95EAF7892F8E292B
:1016200089A38AA18E2C809488218AA30E947A0A99
:1016300088E5482E81E0582E30E020E0F80132970E
:10164000D2016D912D01862F82958F7090E0DC0183
:1016500090968C914081518190E06F7002C0959579
:1016600087956A95E2F780FD3FC0C501022E02C052
:10167000880F991F0A94E2F7842B952B918380831E
:101680002F5F3F4F2C303105D9F689A1882289A2DE
:101690008AA1E82AEAA281E0208131812615370556
:1016A00009F480E0982AB2E0063B1B0709F0A1CFBD
:1016B000292D44E066EB72E08EEA92E00E94780BFE
:1016C0000E948807892DDF91CF911F910F91FF9084
:1016D000EF90DF90CF90BF90AF909F908F907F90D2
:1016E0006F905F904F90089590E080E0C5CF08958F
:1016F000FF920F931F93CF93DF93F82E092F162F8E
:10170000D72FC42F222349F081E08093D2010E9479
:1017100057249093D1018093D0018091D2018823E6
:10172000A1F08091D0019091D1010E94632406978D
:1017300060F0EF2DF02FA12FBD2F90E080E0D0E0E2
:101740008C179D0744F01092D201DF91CF911F9129
:101750000F91FF900895219131912D933D93019622
:10176000EFCFAF92BF92CF92DF92FF920F931F9372
:10177000CF93DF93362F472FE82FF0E0E256F84F54
:1017800071110DC06491762F862FDF91CF911F913B
:101790000F91FF90DF90CF90BF90AF900895C72F2B
:1017A000D0E02491F22E022F10E056E0659FC00198
:1017B0001124EFEFF0E0BF010E940C31832F90E085
:1017C000880F991F35E5369FD001379FB00D112442
:1017D0008A1B9B0B982F990F980F6F01CC1ADD0A6B
:1017E000C09ED001C19EB00DD09EB00D11248B2F94
:1017F000949FA0011124452F55276F01C41AD50AC3
:10180000C09EA001C19E500DD09E500D11245F01BD
:10181000A91AB108AC9E6001AD9ED00CBC9ED00C44
:101820001124CD2CDD24EC19FD09E09FE001E19F9E
:10183000D00DF09FD00D1124ED2F62307105A1F075
:1018400048F46115710569F06130710589F0EB2F7D
:10185000852F07C06430710571F088F0663071051E
:10186000B1F76E2F722F91CFE22F2B2F8D2FF9CF43
:10187000E22F252FF6CFEB2F822F2D2FF2CF2B2FFC
:101880008F2DE52FEECF0895CF93DF93762FE901CB
:10189000682F842F0E94B10B798368838A83DF913C
:1018A000CF9108958091BE02982F9E7F29F4817078
:1018B00082608093BE0208958A34E8F38170886460
:1018C000F8CF88E090E00C944F31CF92DF92EF9206
:1018D000FF926B017C010E94520CB701A60188E0C7
:1018E00090E0FF90EF90DF90CF900C946D31EEEB95
:1018F000F2E083E0808311828FEF828383831482FE
:1019000060817181828193810C94650C8091760253
:1019100080FF76C08EE696E09F938F930E94BA0672
:10192000809176020F900F9080FF6AC08091BE0276
:1019300081701F928F9381E596E09F938F930E9411
:10194000BA06809176020F900F900F900F9080FF53
:1019500057C08091BE0286951F928F9386E396E0D2
:101960009F938F930E94BA06809176020F900F90FA
:101970000F900F9080FF44C08091BF021F928F9301
:101980008CE196E09F938F930E94BA068091760235
:101990000F900F900F900F9080FF32C08091C00287
:1019A0001F928F9382E096E09F938F930E94BA06D6
:1019B000809176020F900F900F900F9080FF20C0C3
:1019C0008091C1021F928F9388EE95E09F938F9331
:1019D0000E94BA06809176020F900F900F900F90A0
:1019E00080FF0EC08091C2021F928F938CEC95E015
:1019F0009F938F930E94BA060F900F900F900F90B5
:101A000008958091BE0280FF02C08695089580E00F
:101A100008958091C202833018F48F5F8093C202D0
:101A20006091BE027091BF028091C0029091C1028C
:101A30000C94650C8091C202882319F08150809328
:101A4000C2026091BE027091BF028091C00290916B
:101A5000C1020C94650C70E00C94DA1360910301E0
:101A60008091BE0280FF0AC08091020123E0829F24
:101A7000C00111248D539D4F0C942B0D80910401B6
:101A80009091050123E0829FF0011124ED53FD4F59
:101A9000891750F71182108212828F5F3396F8CF28
:101AA0009091BE0290FF14C0909104012091050115
:101AB00033E0939FF0011124ED53FD4F921710F086
:101AC0000C942E0D8183608342839F5F3396F6CF03
:101AD0000895CF93DF9300D00F92CDB7DEB79091EA
:101AE000BE0290FF0AC09E012F5F3F4F0E94440C30
:101AF0004B8169818A810E94500D0F900F900F9049
:101B0000DF91CF910895CF93DF93EC01EC81F0E06A
:101B1000E756F94F4491EEEBF2E0628181810E9439
:101B2000690D8C818F5F8C83DF91CF910895CF9366
:101B3000DF93EC01EEEBF2E0438162818C810E9445
:101B4000690D8C818F5F8C83DF91CF9108950F9306
:101B50001F93CF93DF9300D00F92CDB7DEB78C01E8
:101B60008091D30181110AC09E012F5F3F4F4FEF3B
:101B70006FEF0E94440C8A818093D301F801648145
:101B8000613069F08091D30140E0662361F040E06C
:101B9000623011F44091D30180E060E004C06091B4
:101BA000D30140E080E00E94500DF801848190E074
:101BB000019663E070E00E94203184830F900F90C3
:101BC0000F90DF91CF911F910F9108954F925F92E7
:101BD0006F927F928F929F92AF92BF92CF92DF923D
:101BE000EF92FF920F931F93CF93DF9300D00F924A
:101BF000CDB7DEB7182FD62E042F722E9091BE02CD
:101C000090FF46C0E92FE695AE2FB0E0A859BE4F31
:101C10008C918093DD019E7F923009F04DC09E0132
:101C20002F5F3F4F812F0E94440C4B8169818A8135
:101C30000E94500D1093BF02D092C0020093C102C7
:101C4000772009F49CC06091BE027091BF02809120
:101C5000C0029091C1020E94650C8091760280FFC3
:101C600017C08091C1021F928F938091C0021F9272
:101C70008F938091BF021F928F938FE893E09F9381
:101C80008F930E94BA060FB6F894DEBF0FBECDBF89
:101C90000F900F900F90DF91CF911F910F91FF90B8
:101CA000EF90DF90CF90BF90AF909F908F907F90FC
:101CB0006F905F904F900895823019F40091C102A7
:101CC000B9CF863019F41091BF02B4CF8930D9F35F
:101CD000893109F0AFCFE9518E2F8170682E8E2F98
:101CE00080958170C82EE695F0E0E756F84FE590B4
:101CF000F490412CFF2494EBA92E93E0B92E60912F
:101D00000601461618F00E942E0D94CF842C912CBB
:101D10008E9CC0018F9C900D9E9C900D112470E0B4
:101D20000E940C31512E611028C0560E809176020F
:101D300080FF11C0FF92EF921F92CF921F925F928D
:101D40001F924F92BF92AF920E94BA060FB6F894BC
:101D5000DEBF0FBECDBF20910401820E911C940105
:101D6000220F331F280D391D2D533D4F402F6D2D50
:101D7000852D0E94440C4394C2CF561AD7CF809130
:101D8000760280FF85CF1F920F931F92DF921F92E2
:101D90001F9388E693E073CFEEEBF2E09181282F5A
:101DA0004381628188E0890F0C94E60D81E00C94F8
:101DB000CC0EEEEBF2E09181282F4381628188EF17
:101DC000890F0C94E60D81E00C94D90EEEEBF2E055
:101DD000628128E0620F08F46FEF282F4381818130
:101DE0000C94E60D81E00C94E60EEEEBF2E06281DD
:101DF00028E0621B08F460E0282F438181810C9465
:101E0000E60D81E00C94F50EEEEBF2E0438128E064
:101E1000420F08F44FEF282F628181810C94E60D68
:101E200081E00C94040FEEEBF2E0438128E0421BCA
:101E300008F440E0282F628181810C94E60D81E056
:101E40000C94130F20E00C94E60DEF92FF921F9379
:101E5000CF93DF93EC0110E0EE24EA94F12C609133
:101E60000601161770F00E942E0D9A818C8190FF4A
:101E700027C08F5F8C83DF91CF911F91FF90EF90F0
:101E8000089520910401422F410F5527551FCA0183
:101E90009A01220F331F280F391F2D533D4F70E039
:101EA000C7010E942031962F8C814091C102609120
:101EB000C002199F800D11240E94440C1F5FCFCFD8
:101EC0008150D8CFAF92BF92CF92DF92EF92FF9224
:101ED0000F931F93CF93DF93FC0182810FEF80FF5D
:101EE00001E010E04AE0A42E809106011817C8F026
:101EF0000E942E0D8091D501013009F055C081114D
:101F000002C08091060181508093D501DF91CF916D
:101F10001F910F91FF90EF90DF90CF90BF90AF9007
:101F20000895C0910401C12ED12CCC0DDD2DD11D01
:101F3000CE01880F991FC80FD91FCD53DD4F1982CD
:101F400018821A8234E0E32EF12CB12C8091D50155
:101F50008B0D8B301CF16A2D0E94FE30892F082ECC
:101F6000000C990BC816D90691F48091C1028E9D80
:101F7000A0018F9D500D1124559547955595479576
:101F80009E016091C0028091BF020E94440CB00E7D
:101F9000F1E0EF1AF108D1F61F5FA6CF87FFDFCF80
:101FA00090910601890FDBCF90E0019660910601C8
:101FB00070E00E942031A8CF0F931F93CF93DF933F
:101FC000809104019091050123E0829FF00111248A
:101FD000ED53FD4F891740F1C0E0D3E06091060159
:101FE000C61740F10E942E0D209100018091D4016E
:101FF000820F8093D40190910101920F909301017F
:10200000191654F4082E000C990B4091060141500A
:10201000550B841795071CF0219520930001DF9143
:10202000CF911F910F9108951182108212828F5FBC
:102030003396D0CF0C2F10E070E0C8010E94203101
:1020400020910401820F482F50E02091D401022EEC
:10205000000C330B02171307BCF020910101022E74
:10206000000C330B201731077CF08D9F9001112459
:102070002D533D4F4091C1026091C0028091BF023B
:102080000E94440CCF5FAACFFA01EE0FFF1FE40FAE
:10209000F51FED53FD4F118210821282F3CF0F9383
:1020A0001F93CF93DF938C01FC018481958101966E
:1020B0008170992795838483C0E0D5E580910601DE
:1020C000C81730F0DF91CF911F910F910C942E0D16
:1020D00020910401422F4C0F5527551FCA019A0128
:1020E000220F331F280F391F2D533D4F8C2F8695FC
:1020F000F80144815581840F952F911D8170409185
:10210000C1026091C0028D9F802D11240E94440C59
:10211000CF5FD4CF0F931F93CF93DF93EC0110E0E9
:1021200000E0909106019017110609F06CF40E94EE
:102130002E0D8C8190E00196817099278C83DF9120
:10214000CF911F910F91089520910401A801420F92
:10215000511D9A01220F331F240F351F2D533D4F60
:102160004C816091C0028091BF0296959017110634
:1021700051F04CF0442349F04091C1020E94440CBC
:102180000F5F1F4FCECF4423B9F340E0F7CF6091EC
:10219000BE02669570E04BE050E087E091E00E945F
:1021A0003A31892B19F481E08093DE010E94572493
:1021B0009093D7018093D6018091760280FF08C06A
:1021C0008FE493E09F938F930E94BA060F900F9035
:1021D00008951092DE018091760280FF08C086E3A8
:1021E00093E09F938F930E94BA060F900F900895EB
:1021F0009091BE0290FF54C0917081113BC09260DB
:102200009093BE026623E9F16091BE027091BF0215
:102210008091C0029091C1020E94650C809176026B
:1022200080FF0FC08091BE0286951F928F9382E13E
:1022300095E09F938F930E94BA060F900F900F9096
:102240000F906091BE02669570E04BE050E087E031
:1022500091E00E943A31892B01F10E94E91081E05E
:102260008093D9014091C1026091C0028091BF0268
:102270000C94220F853210F09864C2CF880F982BEF
:10228000BFCF8091760280FFDCCF8091BE02869521
:102290001F928F9384EF94E0CCCF0E94C710DFCFC2
:1022A0000895682F9091BE02969581E0890F85323E
:1022B00008F081E00C94F81081E00C945111682F23
:1022C0009091BE0296958FEF890F09F484E20C94E9
:1022D000F81081E00C945F1161E00C94F81080918B
:1022E000BE0281608093BE028091760280FF0DC0A5
:1022F0001F9281E08F9386E894E09F938F930E94D2
:10230000BA060F900F900F900F908091BE028695A5
:102310000C946C1160E00C94F8108091DC01811138
:1023200060C08091760280FF14C085EB95E09F939A
:102330008F930E94BA06809176020F900F9080FFD3
:1023400008C08FE995E09F938F930E94BA060F9083
:102350000F900E942C22811110C08091760280FF84
:1023600008C087E795E09F938F930E94BA060F906D
:102370000F900E94D3220E94770C0E94610C609300
:10238000BE027093BF028093C0029093C1026E7F21
:10239000C1F48091760280FF08C08EE295E09F93A1
:1023A0008F930E94BA060F900F900E94770C0E94A4
:1023B000610C6093BE027093BF028093C002909341
:1023C000C1020E94520C0E94860C1092DE01809184
:1023D000BE0280FF03C086950E948A1181E080932F
:1023E000DC0108958091BE0281608093BE028091DD
:1023F000760280FF0DC01F9281E08F938DE494E000
:102400009F938F930E94BA060F900F900F900F909A
:102410008091BE0286950C948A118091BE028E7FB7
:102420008093BE026091BE027091BF028091C00293
:102430009091C1020E94650C8091760280FF0FC0CE
:102440008091BE0281701F928F9385E194E09F93EB
:102450008F930E94BA060F900F900F900F900E94DA
:10246000E9102FEF80E792E0215080409040E1F7A3
:1024700000C000000C942E0D8091760280FF10C0E9
:102480008091BE02809581701F928F938DEB94E0B6
:102490009F938F930E94BA060F900F900F900F900A
:1024A0008091BE0280FD0C940D120C946F118091EE
:1024B000BE028E7F8093BE028091760280FF0CC0A8
:1024C0001F921F928BED93E09F938F930E94BA0609
:1024D0000F900F900F900F900E94E9102FEF80E760
:1024E00092E0215080409040E1F700C000000C9441
:1024F0002E0D0F931F93CF93DF938091DE018823DE
:1025000009F48DC08091DD01E091BE02E695E81BE3
:10251000E093D8018230C9F5F0E0EB56F94FE49131
:10252000CE2FD0E003E81DE08091D901882389F007
:102530001092D9010E9457249E0120953095820F58
:10254000931F9093D7018093D6011092DB011092D4
:10255000DA018091D6019091D7010E9463248C17F3
:102560009D0708F45CC0E091D601F091D701CE0F31
:10257000DF1FD093D701C093D60186ED91E0F8011B
:10258000DF91CF911F910F910994863049F4F0E0CB
:10259000EE56F94FE491CE2FD0E007E91DE0C4CF0D
:1025A000893051F4E695F0E0E157F94FE491CE2FF0
:1025B000D0E005E21FE0B8CF8F3051F4E695F0E0AF
:1025C000E457F94FE491CE2FD0E002E61FE0ACCF04
:1025D000853149F4F0E0E757F94FE491CE2FD0E090
:1025E0000CED1FE0A1CFC8EED3E00FE410E188317D
:1025F00009F49ACF833239F4E7E8F6E0C591D49133
:1026000007EA1DE091CFC4EFD1E00AE810E184327F
:1026100009F48ACFC0EDD7E003E41CE085CFDF9159
:10262000CF911F910F910895FA01811101C0FB0113
:102630000994CF93DF93C82FD62F0E94010D8C17DA
:1026400040F00E94010D8D1720F4DF91CF910C9482
:102650005C118C2FDF91CF910C946C110F931F9311
:10266000CF938C01FB01C281CC2309F465C00E9489
:1026700050218272F801E25CFC45E431F10538F446
:10268000EF56FE4C0C9434310E943C12C0E08C2F6B
:10269000CF911F910F91089549E651E16CE571E1E9
:1026A0000E941413F3CF4CE551E169E671E1F8CFD4
:1026B00043EE5EE066ED7EE0F3CF46ED5EE063EE76
:1026C0007EE0EECF41E05FE062EF7EE0E9CF42EFF7
:1026D0005EE061E07FE0E4CF4FE15FE060E17FE05A
:1026E000DFCF40E15FE06FE17FE0DACF4AE15DE01C
:1026F00069E07DE0D5CF49E05DE06AE17DE0D0CFE3
:1027000081E00E946C11C2CF65E082E00E94191343
:10271000BDCF68E086E0FACF6EE089E0F7CF64E1F4
:102720008FE0F4CF67E185E1F1CF88E1EACF62E2A3
:1027300089E1ECCF83E2E5CFC1E0A9CF2DB1342F01
:102740003F70A1E0B0E001C0AA0F3A95EAF72A2B4A
:102750002DB942954F70E42FF0E022A14A2F409509
:10276000422332A1A32B5FB7F8949B01220F331FA2
:10277000260F371F280F391F2817390741F45FBF6D
:1027800087EC90E00197F1F700C000000895FC018C
:102790006191CF0178E0AEB9000000C067FF4EB98B
:1027A000660F000000C000C000C04EB900C07A959E
:1027B00091F7E2CF42EC0C949E13CF93DF93EC01A0
:1027C00097FF0CC0FB018281882341F00E943014E6
:1027D000CE019F770E9474140E945C1481E0DF9107
:1027E000CF9108958CE090E00E944731482F50E04F
:1027F00070E060E04093E1025093E2026093E302F4
:102800007093E4029091760290FF0CC01F928F9318
:102810008DEB98E09F938F930E94BA060F900F90D4
:102820000F900F9008956091E1028CE090E00C947D
:102830005B318093E1020E9413148091760280FF45
:102840000EC08091E1021F928F938EE998E09F93D2
:102850008F930E94BA060F900F900F900F900895DB
:102860000E9450218093E5020E9463218091E10241
:10287000813089F0882359F0823091F08430B9F0AA
:102880008FE39CE90197F1F700C00000089582EE04
:102890000E949018F5CF88E193E00E942407F0CFC2
:1028A00082EE0E94901887E50E940D19E9CF86EE0E
:1028B0000E940D1988E1F8CF8091E102813071F01A
:1028C000882341F0823031F0843061F08091E5025C
:1028D0000C94602182EE0E94DE18F8CF8CE20E94F8
:1028E0000D19F4CF88E2FBCF0F931F93CF93DF93A3
:1028F0008C01CCE0D0E0C8010C2E02C096958795E3
:102900000A94E2F78F700E948A070E940D1924979B
:10291000CC3F8FEFD80779F7DF91CF911F910F91BF
:1029200008950F931F93CF93DF93EC018B01FB016D
:102930008281882371F0C33EFCE5DF0701F188F452
:10294000C13EECE5DE07C9F081E0C23EFCE5DF07F1
:1029500089F0B801CE01DF91CF911F910F910C94B6
:10296000DD13C43E8CE5D80761F084E0C53EECE59C
:10297000DE0779F70E941914ECCF80E0FBCF82E0EC
:10298000F9CF83E0F7CF0F931F93CF93DF93C62F39
:10299000D42F022FFC0182818823C9F06093E101CA
:1029A0000E9457249093E0018093DF0180E28C0F16
:1029B000883008F050C0C77081E001C0880FCA9508
:1029C000EAF7DF91CF911F910F910C94201910918C
:1029D000E101161335C08091DF019091E0010E9462
:1029E0006324883C910560F5C0E2CD0F1D17B9F056
:1029F00080E2810F883040F4177081E001C0880FB9
:102A00001A95EAF70E942719C83048F481E09D2FF3
:102A1000977001C0880F9A95EAF70E942019802FBD
:102A20000E940D19C830B8F4D77081E001C0880F3A
:102A3000DA95EAF7DF91CF911F910F910C94271946
:102A400080E28C0F883038F4C77081E001C0880FB5
:102A5000CA95EAF7EFCFDF91CF911F910F910895BB
:102A60009C01CB01233F4CE5340731F190F4283D24
:102A7000FCE53F07E9F0293D4CE5340769F1273DC6
:102A80003C4579F426E241EE61EE0E94C31480E0F9
:102A90000895253FFCE53F07B9F090F0263F3C45FF
:102AA000B9F0FC0182818823D1F01092E1010895F0
:102AB00027E245EE65EEE9CF26E241EE60EEE5CF96
:102AC00027E245EE64EEE1CF26E241EE62EEDDCF95
:102AD00027E245EE66EED9CF28E241E0EBCF81E078
:102AE0000895CF93DF93EC01FB018281882309F4E1
:102AF00019C1C230FCE5DF07C0F1C6319CE5D9073A
:102B000030F09E012A5F3C452930310570F50E9466
:102B100049229093ED028093EC02C031ECE5DE0790
:102B200009F4CFC008F05BC0C8308CE5D80709F4C1
:102B3000B6C088F5C430ECE5DE0709F4A8C0C0F4DF
:102B4000C2308CE5D80709F49CC08091EC02826009
:102B5000C330DC4509F498C08091EC029091ED02FD
:102B60000E9457220E94D11B80E0DF91CF910895EF
:102B70008091EC028061C630ECE5DE0709F484C088
:102B80008091EC028860C730DC4508F47DC08091FC
:102B9000EC02806279C0CC308CE5D80709F489C09A
:102BA00070F48091EC028C60CA30ECE5DE0709F429
:102BB0006BC008F478C08091EC028E7F65C0CE3087
:102BC0008CE5D80709F479C08091EC028B7FCF3077
:102BD000DC4508F459C08091EC028F7E55C0CB3F94
:102BE000ECE5DE0709F457C030F5C3318CE5D807B2
:102BF00009F46FC078F4C131ECE5DE0709F465C073
:102C0000C231DC4509F0A8CF0E94D11B8091EC02B3
:102C10008F773AC0C5318CE5D80709F462C008F453
:102C200076C08091ED028160CA3FDC4509F094CF07
:102C30008093ED0291CFCF3FFCE5DF0709F44DC053
:102C400088F48091ED028D7FCD3F9CE5D90781F31B
:102C50008091ED028E7FCE3FDC4550F38091ED02F6
:102C60008360E6CFC130FDE5DF0709F459C008F401
:102C700044C080E0C230DD4509F06ECF0E94D5220D
:102C80006BCF8091EC0281608093EC0265CF8091E4
:102C9000EC028460F9CF8091ED028260C9CF80910F
:102CA000EC028064F1CF0E94D11B8091EC0280681D
:102CB000EBCF8091EC028D7FE7CF8091EC02877F94
:102CC000E3CF8091EC028F7DDFCF8091EC028F7B90
:102CD000DBCF8091EC02837FD7CF8091ED028C7F98
:102CE000A7CF8091EC0282FB992790F921E09227EF
:102CF00090FB82F990FB83F9C7CF8091ED02982F6A
:102D0000909591708E7F892B90FB81F991CF0E94D5
:102D1000D11B9091EC02892F97FB87F98058B4CF93
:102D200081E0ACCF81E021CFCF93DF93EB018631FF
:102D30009C4511F50E9450219A81992399F08A7A35
:102D400091E009F490E09093E201811109C089E2D9
:102D50000E942B210E949F2180E0DF91CF91089556
:102D600085E3F6CF8091E201811104C089E20E94DF
:102D70003221F0CF85E3FBCF81E0EFCF9093E801E4
:102D80008093E7010895E091E701F091E801309721
:102D900021F00190F081E02D099480E00895EF92F8
:102DA000FF920F931F93CF93DF93EC01E091E70124
:102DB000F091E801309709F446C0809126018823FC
:102DC00041F08091EC0287FF04C08881898385E00F
:102DD00088830280F381E02DCE01099580917602EF
:102DE00082FF31C080FF04C085EE98E00E9421067A
:102DF00010E000E08FEDE82E88E0F82E809176025A
:102E000080FF0EC0FE01E00FF11F80811F928F93A3
:102E1000FF92EF920E94BA060F900F900F900F90C2
:102E20000F5F1F4F0830110549F78091760280FF30
:102E30000AC08DED98E0DF91CF911F910F91FF9027
:102E4000EF900C942106DF91CF911F910F91FF908D
:102E5000EF900895E091E701F091E801309739F0A3
:102E600022E0DC012C930480F581E02D0994089583
:102E70002091E5013091E6012817390771F0909310
:102E8000E6018093E501E091E701F091E8013097D8
:102E900021F00680F781E02D099408952091E30147
:102EA0003091E4012817390771F09093E401809381
:102EB000E301E091E701F091E801309721F000840F
:102EC000F185E02D0994089585B7806885BF85B7A1
:102ED000806885BF0895089508950C946B17089530
:102EE0000C946F170E9464170E946C170C946D1756
:102EF00081E008950E944E240E947E0A0E940525CA
:102F00000E948D110C947017CF93C82F8091760278
:102F100082FF1EC080FF1CC08EEF98E00E94210639
:102F20008091760280FF14C01F92CF9389EF98E0C2
:102F30009F938F930E94BA06809176020F900F9014
:102F40000F900F9080FF04C087EF98E00E94210649
:102F50008C2FCF910C949F077F928F929F92AF926C
:102F6000BF92CF92DF92EF92FF920F931F93CF9376
:102F7000DF93CDB7DEB72A970FB6F894DEBF0FBE4A
:102F8000CDBF0E94DF0A0E9478172AEEE22E21E0D0
:102F9000F22E10E000E0811134C08FEF89838A8324
:102FA0001B820E9457248160782F9D838C834981E6
:102FB0005A816B818D810E9461180E9479120E9452
:102FC00020280E94C3169091E901891709F465C071
:102FD0000E94C3168093E9012A960FB6F894DEBFCB
:102FE0000FBECDBFDF91CF911F910F91FF90EF905A
:102FF000DF90CF90BF90AF909F908F907F900C9478
:103000008417812F0E942A0A4C01F701A080B18009
:10301000A816B906B9F18091760281FD0E94330AA3
:10302000712CCC24C394D12CA824B924C5018C21A3
:103030009D21892B09F17E821F8321E0C4018C210F
:103040009D21892B09F420E028870E945724816064
:10305000782F9A8789874E815F8168858A850E944B
:103060006118F701808191818C259D259183808352
:103070000F5F063508F0A1CF7394CC0CDD1CFCE08B
:103080007F12D4CF1F5F82E0E80EF11C143009F0EC
:10309000B8CF002309F481CF90CF2A960FB6F894C9
:1030A000DEBF0FBECDBFDF91CF911F910F91FF907B
:1030B000EF90DF90CF90BF90AF909F908F907F90D8
:1030C0000895CF93DF93CDB7DEB72B970FB6F89463
:1030D000DEBF0FBECDBF4F83588769877A878B8746
:1030E0001E821D8285E0FE013796DE011196019059
:1030F0000D928A95E1F749815A816B817C818D819E
:103100009E812B960FB6F894DEBF0FBECDBFDF9128
:10311000CF910C94471EFC01808191810C94FD207D
:10312000CF93C82F882309F447C08CEF8C0F813AC6
:10313000A0F46C2F80911201909113010E94EE2255
:10314000882329F08C2F0E9432210E949F218C2FEE
:103150000E942B21CF910C949F2180E28C0F88300C
:1031600048F4C77081E001C0880FCA95EAF70E9451
:103170005321F0CFEBE5EC0FE33040F4F0E0E55401
:10318000FE4F808190E0CF910C943817E8E5EC0F6A
:10319000E73150F4F0E0EE0FFF1FE357FE4F808160
:1031A0009181CF910C944E17C03F30F08C2F0E942C
:1031B000AC26CF910C949327CF910895882361F189
:1031C0009CEF980F913A20F40E9432210C949F2199
:1031D00090E2980F983050F4877091E001C0990FF9
:1031E0008A95EAF7892F0E945921F0CF9BE5980F25
:1031F000933020F490E080E00C94381798E5980F15
:10320000973120F490E080E00C944E17803F20F03E
:103210000E9414270C9493270895CF93C82F0E94DF
:103220009018C93349F42FEF87EE93E02150804086
:103230009040E1F700C000008C2FCF910C94DE1875
:10324000882321F00E9453210C949F210895882304
:1032500021F00E9459210C949F210895BF92CF9292
:10326000DF92EF92FF920F931F93CF93DF936C0146
:10327000D62FC72FFC01058102950F701281111105
:103280000E9473210E944921E82E882371F01123A6
:10329000B1F080E28D0F883090F082E00E94EA2148
:1032A0000E94492191E0E82EE926BC2EB2949FE0CD
:1032B000B922EB2DF0E0EB55FE4C0C943431E12CAF
:1032C000F4CF0C2F0F70C07F11F00295007F1123F7
:1032D000A9F0002359F080E28D0F883010F0D11151
:1032E00009C0802F0E9453210E949F218D2F0E9490
:1032F000901814C0802F0E946621F6CF8D2F0E9457
:10330000DE18002359F080E28D0F883010F0D111C3
:103310002CC0802F0E9459210E949F212B2D2850C4
:10332000330B2430310520F40E94C3160E949F07FE
:10333000EE2009F4D5C10E94452180FDD1C1F601DE
:1033400012820E943F210E94CB1FC6010E94911B46
:103350000E943F21DF91CF911F910F91FF90EF903D
:10336000DF90CF90BF900C94EC1F802F0E946C21B7
:10337000D3CFFC2FFF70FF2EC07FC03219F0F29424
:1033800080EFF822DD2369F0D13049F1112391F16A
:10339000002351F1F601858180FFA8CF8F708583CE
:1033A00023C0112381F0011106C00E9486218F29BC
:1033B0000E942019B3CF0130C1F70E9486218F29C6
:1033C0000E948C21ABCF011106C00E9495218F2D48
:1033D0000E942719A3CF013009F4A0CFF6CF112303
:1033E00029F0063008F09ACF8F2DE2CF053008F093
:1033F00095CFEDCF002359F3D93349F4FFEF27EEF2
:1034000033E0F15020403040E1F700C000008D2F44
:103410000E94DE1883CF8C2F86958695837069F085
:10342000813009F07BCF8D2F9C2F9370111102C03A
:1034300090E080E00E944E1771CF8D2F9C2F9370EB
:10344000111102C090E080E00E94381767CF11236D
:1034500009F1D53F99F0D63FB9F0D43F49F48091B6
:10346000E6029091E70281609093E7028093E60282
:103470008D2F0E94AC260E94932750CF8091E602A8
:103480009091E7028260F0CF8091E6029091E7028E
:103490008460EACFD53F89F0D63FA9F0D43F49F404
:1034A0008091E6029091E7028E7F9093E7028093ED
:1034B000E6028D2F0E941427DECF8091E6029091C4
:1034C000E7028D7FF2CF8091E6029091E7028B7F39
:1034D000ECCF8C2F837009F041C011111FCF4D2FFD
:1034E000429546954770440F440F0D2F0F7010E022
:1034F00030E020E0042E04C0000F111F221F331FF4
:103500000A94D2F760E070E0CB01D4FF0FC06FE007
:1035100070E080E090E004C0660F771F881F991F5D
:103520004A95D2F76095709580959095C695C69509
:10353000C370602B712B822B932BC23049F058F44F
:10354000C13019F00E947D1FE9CE0E946B1FE6CEAC
:103550000E948F1FE3CE0E94691FE0CE8695112343
:1035600011F08C2F8170882309F4D8CE4D2F42950D
:1035700046954770440F440F0D2F0F7010E030E058
:1035800020E0042E04C0000F111F221F331F0A94D5
:10359000D2F760E070E0CB01D4FF0FC06FE070E0C5
:1035A00080E090E004C0660F771F881F991F4A953E
:1035B000D2F76095709580959095C695C695C37025
:1035C000602B712B822B932BC23049F058F4C13001
:1035D00019F00E944220A2CE0E9430209FCE0E946D
:1035E00054209CCE0E94A51F99CECF70112329F0A4
:1035F0008C2F0E94CB1F8D2FDBCE8D2F0E94271981
:103600008C2F0E94EC1F8ACED23F89F160F4D03F0C
:10361000C9F0D13F29F1112309F442C0011166CE4E
:103620008C2F8F7121C0D33F39F1D43FA1F71123E3
:1036300069F1CF718C2F0E94CB1F63E08C2F0E9409
:10364000D5216CCE112341F0053008F067CE8C2FC8
:103650008F710E940F2062CE063008F05FCEF7CF48
:103660008C2F8F71112369F20E94CB1F57CE8C2FA4
:103670008F711123C9F3C5CF112329F08C2F8F71BE
:103680000E94B61F4BCE0E94B11F48CE81E00E941F
:10369000EA21023008F442CE82E00E94EA213ECEC6
:1036A000002359F0D93309F0B2CE8FEF97EEE3E063
:1036B00081509040E040E1F7A8CE8C2F8F71A1CFD0
:1036C0004C2F4F706D2FC6010E9415080E94E11EFD
:1036D00025CE4C2F4F706D2FC6010E9418081ECEAC
:1036E000DF91CF911F910F91FF90EF90DF90CF90DE
:1036F000BF9008950F931F93CF93DF93EC016881E0
:1037000079818A810E9407218C010E9466200E9493
:10371000681FB801CE01DF91CF911F910F910C94DA
:103720002E19CF93DF93EC018B819C81892B29F09B
:103730008881998189238F3F19F4DF91CF91089572
:10374000CE010E94B7078823C1F3CE010E947A1BE5
:10375000CE01DF91CF910C947307882321F00E9452
:1037600066210C949F210895882321F00E946C21EA
:103770000C949F2108950E9473210E9483210E942E
:103780009F210E943A290E94932790E080E00E94A6
:10379000381790E080E00C944E170E9439210C9469
:1037A000BB1B0E9463210C94CD1BE92FE295EF70A7
:1037B000E250EE3070F4F0E0EB54FE4C0C943431F7
:1037C000803F19F020F4883E20F481E00895843F82
:1037D000E1F380E00895883EC0F3813FD1F7F5CF53
:1037E00093FB882780F908950E94FD200C94D51B37
:1037F000CF93DF9300D000D00F92CDB7DEB70F90FC
:103800000F900F900F900F90DF91CF910895CF936D
:10381000DF9300D000D000D0CDB7DEB726960FB62C
:10382000F894DEBF0FBECDBFDF91CF9108951F93F7
:10383000CF93DF93C091F30116E08091F4018C13D4
:1038400004C0DF91CF911F910895D0E01C9FF0013B
:103850001D9FF00D1124EB50FE4F4081518162817C
:103860007381848195810E94071C2196C770E5CFE2
:103870004091250250912602609127027091280202
:103880008091290290912A020C94071C1F93CF93D8
:10389000DF9380912A02807FA9F4809127028823F8
:1038A00089F08091F301C091F4016091250270913B
:1038B0002602A0912802B0912902D62FD72316E024
:1038C000C81304C0DF91CF911F91089590E0109725
:1038D00011F0DF3F19F401968770F2CF189F900125
:1038E000199F300D1124F901EB50FE4F4181471310
:1038F000F2CF40814613EFCF42814111ECCF43819B
:1039000054814A1B5B0B483C510528F780912A02E1
:103910008F70806180932A02F901E650FE4F80810A
:103920008F708061808385E292E00E94911BDF911D
:10393000CF911F910C94171CAF92BF92CF92DF9240
:10394000EF92FF920F931F93CF93DF93CDB7DEB724
:1039500061970FB6F894DEBF0FBECDBF8C0185E036
:10396000F801DE011D9601900D928A95E1F7F801AC
:1039700040815181E28085E2C82E82E0D82E60919C
:103980002802709129026115710509F461C19091B5
:10399000250220912602892F82238F3F09F458C1E6
:1039A000A380B480F0902702F501E61BF70BFF20FF
:1039B00009F4FCC080912A02382F307FE83CF105E1
:1039C00008F0B2C0311179C0FE2C251323C0941326
:1039D00021C0E1101FC08F70806180932A020E9475
:1039E000381CC6010E94911B80912A02F801858330
:1039F0008F2D61960FB6F894DEBF0FBECDBFDF915D
:103A0000CF911F910F91FF90EF90DF90CF90BF90DB
:103A1000AF900895AB2829F0842F85238F3F09F0BC
:103A200033C180E0F82FF170DF2E80FF3CC0809121
:103A3000F3012091F40136E0821315C04D875E87B3
:103A40008D859E850E94FD20292F22952F70223082
:103A5000F0F0243018F59F70F1F0F8019581907F17
:103A6000D1F4D12C1EC090E0389FF001399FF00DA9
:103A70001124EB50FE4F6181651306C06081641311
:103A800003C062816E110FC001968770D5CF9F7001
:103A900011F0882331F3805E883018F3C8010E944A
:103AA000911BFD2CA5CFEE2009F4A2CF80912A0214
:103AB000816080932A02F12C9BCF251306C09413BA
:103AC00004C0F801EE2009F48DC04D875E878D8516
:103AD0009E850E94F41B882319F1EE2009F1809144
:103AE0002A02803270F02091250230912602388718
:103AF0002F831986BB86AA868C87CE0107960E94E3
:103B0000911B86E0F801A5E2B2E001900D928A9542
:103B1000E1F70E94461C0E94381CFF24F39468CFF2
:103B2000C8010E94911BF9CF311113C07A2DB98AB7
:103B3000A88A6E2D89890E94F81B85E292E00E9476
:103B4000911B86E0F60111928A95E9F70E94381CD4
:103B5000B2CF25130FC094130DC0E1100BC0F801B4
:103B60008583C8010E94911B86E0F60111928A9517
:103B7000E9F73ECF4D875E878D859E850E94F41BB9
:103B8000882371F2EE2061F280912A02803208F4DB
:103B9000B8CF20912502309126023A8329831B82D7
:103BA000BD82AC828E83CE010196A9CFE83CF1059F
:103BB00008F041C0FE2CEE2009F4B2CF25132AC034
:103BC000941328C080912A0280FD1BC0982F907FFB
:103BD000C1F0F8018583903F31F0982F907F905F7E
:103BE0008F70892B8583C8010E94911B86E0F801A4
:103BF000A5E2B2E001900D928A95E1F70E94381C8F
:103C0000F7CE86E0F801A5E2B2E001900D928A9528
:103C1000E1F7EECE4D875E878D859E850E94F41B71
:103C200081116FCF80912A02816080932A02C8019E
:103C30000E94911BDDCE7A2DB98AA88A6E2D8989C2
:103C40000E94F81B86E0F60111928A95E9F7D6CF1B
:103C5000EE2009F465CF4D875E878D859E850E9495
:103C6000F41BF82E882309F45BCF86E0F801A5E267
:103C7000B2E001900D928A95E1F785E292E00E9410
:103C80008B180E94461CBACF81E08E25CBCE1F93A5
:103C9000CF93DF93CDB7DEB72C970FB6F894DEBF86
:103CA0000FBECDBF4F83588769877A878B879C87E4
:103CB000CE0107960E949C1C882369F08A859B850B
:103CC000892B39F04F815885842F85238F3F09F048
:103CD00071C016E05FC086E0FE013796DE011196E6
:103CE00001900D928A95E1F78A859B85892B89F34E
:103CF00088859F8189238F3F61F32091F40130E013
:103D0000C9010196877099274091F3014817190658
:103D100071F40E94D11B1092F4011092F30186E01D
:103D2000E5E2F2E0DF011D928A95E9F7D2CF96E055
:103D3000929FD001939FB00D1124AB50BE4FFE0156
:103D4000319601900D929A95E1F78093F4010E94CB
:103D5000171CBFCF819FC00111248B509E4F0E9422
:103D60009C1C8823E9F0E091F3011E9FF0011124CF
:103D7000EB50FE4F40815181628173818481958136
:103D80000E94071C8091F30190E0019687709927AB
:103D90008093F3018091F3019091F4018913DACFBC
:103DA0002C960FB6F894DEBF0FBECDBFDF91CF913A
:103DB0001F91089569857A858B859C850E94071CD3
:103DC00088CFEF92FF920F931F93CF93DF938C01D5
:103DD000892B81F0F12CEE24E394E8012196F8017F
:103DE0008491843770F4843008F05FC08130B1F082
:103DF0008230A1F1DF91CF911F910F91FF90EF9051
:103E00000895853709F44CC008F43DC09CE7980F2D
:103E1000903780F78F770E94DE1849C00E5F1F4FE2
:103E2000FE01849190E2980F983060F48770FE2D27
:103E300001C0FF0F8A95EAF78F2F0E9476210E941A
:103E40009F2102C00E9490188F2D815030F2EFE91F
:103E5000FFE03197F1F700C00000F7CF0E5F1F4F72
:103E6000FE01849190E2980F983050F48770FE2DF7
:103E700001C0FF0F8A95EAF78F2F0E947C21DFCFC8
:103E80000E94DE18E1CF0E5F1F4FFE01C491C150AA
:103E9000D8F28FE99FE00197F1F700C00000F7CF5B
:103EA0000E5F1F4FFE01F490CFCF0E9490188E013D
:103EB000CBCF08950C94591F0E945A1F60934D0256
:103EC00070934E0280934F02909350020C94BB1B50
:103ED00008950C945C1F0F931F9300914D02109155
:103EE0004E0220914F0230915002602B712B822B99
:103EF000932B1F910F910C945C1F0F931F930091B4
:103F00004D0210914E0220914F02309150026023D9
:103F10007123822393231F910F910C945C1F0F93A5
:103F20001F9300914D0210914E0220914F0230914B
:103F3000500260277127822793271F910F910C94BD
:103F40005C1F0C94591F0C94A11F0E94A31F609327
:103F5000490270934A0280934B0290934C020C9456
:103F6000BB1B60E070E0CB010C94A51F0F931F9367
:103F700041E050E060E070E08A019B0104C0000F66
:103F8000111F221F331F8A95D2F7C901B8011F9153
:103F90000F910C94A51F0F931F9341E050E060E038
:103FA00070E004C0440F551F661F771F8A95D2F733
:103FB0008091490290914A02A0914B02B0914C022B
:103FC0008A019B01082B192B2A2B3B2BC901B80115
:103FD0001F910F910C94A51F0F931F9341E050E088
:103FE00060E070E004C0440F551F661F771F8A957C
:103FF000D2F7CB01BA0160957095809590950091AC
:10400000490210914A0220914B0230914C026023E8
:104010007123822393231F910F910C94A51F0F935B
:104020001F9341E050E060E070E004C0440F551F72
:10403000661F771F8A95D2F78091490290914A02B4
:10404000A0914B02B0914C028A019B0108271927CD
:104050002A273B27C901B8011F910F910C94A51F76
:104060000F931F930091490210914A0220914B0235
:1040700030914C02602B712B822B932B1F910F914F
:104080000C94A51F0F931F930091490210914A02AF
:1040900020914B0230914C026023712382239323A1
:1040A0001F910F910C94A51F0F931F93009149022C
:1040B00010914A0220914B0230914C0260277127E7
:1040C000822793271F910F910C94A51F08952CE030
:1040D000929F800D1124982F977041E001C0440FEA
:1040E0009A95EAF786958695869595E0899FF001E1
:1040F0001124E55DFD4F90E080E070E05191DF011B
:1041000011979B01082E02C0369527950A94E2F775
:10411000217021952527242325272C93019685306E
:10412000910561F708952CE0929F800D1124982F3E
:10413000977086958695869525E0829FF0011124DB
:10414000E55DFD4F50E040E080E0219130E0092E38
:1041500002C0369527950A94E2F721703327042E82
:1041600001C0220F0A94EAF7822B4F5F5F4F453060
:10417000510559F70895BF92CF92DF92EF92FF92C7
:104180000F931F93CF93DF938C01C0904902D0907F
:104190004A02E0904B02F0904C0280914D029091C7
:1041A0004E02A0914F02B0915002C82AD92AEA2AA1
:1041B000FB2ACFE1D0E0BC2ED701C6010C2E04C0F3
:1041C000B695A795979587950A94D2F780FD0EC06E
:1041D000219788F7B12C8B2DDF91CF911F910F91F3
:1041E000FF90EF90DF90CF90BF900895B8018C2F93
:1041F0000E943508019761F3EECFCF93DF93EC0176
:104200000E94BB20BE01DF91CF910C9435081F9313
:10421000CF93DF93EB019091F201992331F0CB0121
:10422000DF91CF911F910C94FD20882379F0CB0171
:104230000E94BB20182F682FCE010E946720BE016C
:10424000812FDF91CF911F910C943508CB010E94F3
:104250009320182FF4CF682F8091120190911301B1
:104260000C949023682F80911201909113010C946B
:104270009B2380911201909113010C94A6238091AD
:104280005102859585958595089580915102877095
:10429000089590915102977081E009F480E00895AB
:1042A00080917502089590917502892B8093750213
:1042B00008958095909175029823909375020895C2
:1042C000809375020895109275020895909174027A
:1042D000892B80937402089580959091740298239D
:1042E000909374020895109274020895909173024D
:1042F000892B80937302089580959091730298237F
:10430000909373020895109273020895809152025F
:10431000089508950C94892190915202981721F0E4
:10432000809352020C948A2108958091520288232E
:1043300029F01092520280E00C948A210895E091B5
:104340001201F0911301809175028083E0911201B6
:10435000F0911301808190917402892B8083E09108
:104360001201F0911301808190917302892B808357
:1043700090915202992381F0E0911201F091130182
:104380008081892B808380911201909113010E947A
:10439000DA2281110E9495218091120190911301DE
:1043A0000C94CF1608950C94D22198E0899F900127
:1043B0001124622B609351020E94CB1F8091510205
:1043C0008595859585950C94D3211092510280E0B6
:1043D0000C94D321909151028095892380935102AE
:1043E000282F277071F4282F082E000C330B9217FA
:1043F000130639F08595859585950E94EC1F0C94E0
:10440000E52108959093CF018093CE010895829580
:1044100090E09C01220F331F220F331F2C7C9595B7
:104420008795959587958373282B30E0C901880F70
:10443000991F8A7A359527952575822B0895CF93F4
:10444000DF93D92F0E940722C82F8D2F0E940722A9
:104450009C2FDF91CF91089590E080E00E9455312C
:1044600021E08C3E9E4F09F020E0822F089582E0EB
:1044700090E00C944731682F82E090E00C945B311F
:1044800083E090E00C944731682F83E090E00C9437
:104490005B31CF9384E090E00E944731C82F81E2E6
:1044A00090E00E944731982F8C2FCF910895CF93A1
:1044B000C92F682F84E090E00E945B316C2F81E26D
:1044C00090E0CF910C945B31AB01BC018FE090E0A8
:1044D0000C946D31AB01BC0183E190E00C946D3123
:1044E00060E070E0CB010C946A2260E070E0CB01E8
:1044F0000E9464220C9470226CEE7EEF90E080E0CB
:104500000E94793160E082E090E00E945B3160E0DF
:1045100083E090E00E945B3110924D0210924E02B7
:1045200010924F021092500260E084E090E00E94EE
:104530005B3160E081E290E00E945B3160E085E009
:1045400090E00E945B3160E086E090E00E945B3189
:104550006FEF87E090E00E945B3140E050E0BA01ED
:1045600088E090E00E946D3160E08DE090E00E9474
:104570005B3140E050E0BA0188E190E00E946D318B
:1045800060E087E190E00E945B3140E050E0BA01DA
:104590008CE190E00E946D3160E080E290E00E944A
:1045A0005B310C9475220C947C22682F8EE090E095
:1045B0000C945B31FC01329680912601882321F016
:1045C0008091EC029EE187FF96E080E0915008F434
:1045D000089521912223D1F38F5FF8CF662301F153
:1045E000209126012223F1F02091EC0227FF1AC02E
:1045F000462F4695469546954E3190F4677021E0DA
:1046000030E002C0220F331F6A95E2F7840F911D3C
:10461000FC01828190E02823392381E0232B69F477
:1046200080E00895FC01329608962191261721F02A
:10463000E817F907D1F7F4CF81E008959C01FC0158
:1046400032969FEF80E04191461751F09F3F19F459
:10465000411101C0982F8F5F8630A9F79F3F09F461
:104660000895290F311D97FD3A95F9016283089548
:10467000FC01329608962191261303C0DF011197A1
:104680001C92E817F907B9F70895E62FE695E69525
:10469000E695EE3170F4E80FF92FF11D677021E017
:1046A00030E001C0220F6A95EAF78281822B828373
:1046B00008958091760280FF0CC01F926F938FE265
:1046C00099E09F938F930E94BA060F900F900F90DE
:1046D0000F900895E62FE695E695E695EE3178F48D
:1046E000E80FF92FF11D677021E030E001C0220FC3
:1046F0006A95EAF720958281282322830895809184
:10470000760280FF0CC01F926F9381E199E09F9326
:104710008F930E94BA060F900F900F900F900895FC
:1047200020912601222329F02091EC0227FD0C94F0
:1047300045230C941E2320912601222329F0209149
:10474000EC0227FD0C946A230C943823FC0132966A
:1047500080912601882351F08091EC0287FF06C0EA
:104760008EE1DF011D928A95E9F7089586E0F9CF81
:10477000089508950C94B9230E94BA238091F202FF
:10478000843009F439C01092770288E190E020E487
:104790000FB6F894A895809360000FBE2093600038
:1047A00080E00E949F070E94E910809178028111A9
:1047B0000AC081E0809378028091BE02817080936C
:1047C00079020E9457120E94BA2383B7817F8460C6
:1047D00083BF83B7816083BF7894889583B78E7FCA
:1047E00083BF0FB6F894A89580916000886180938C
:1047F0006000109260000FBE08950895CF930E944C
:10480000B8230E94DF0A0E94FD23C0E08C2F0E9483
:104810002A0A892B31F4CF5FC430C1F780E0CF91F1
:10482000089581E0FCCF08950C9413240E94D11BBD
:104830000E94C3160E949F0710927802809179020D
:1048400081110E94F2110E94C7100C9414241F922F
:104850001FB61F9211248F939F93AF93BF938091A4
:104860007702811113C08091E8029091E902A09132
:10487000EA02B091EB024196A11DB11D8093E802BE
:104880009093E902A093EA02B093EB02BF91AF913B
:104890009F918F911F901FBE1F90189582E084BD3D
:1048A00093E095BD9AEF97BD80936E0008952FB762
:1048B000F8948091E8029091E902A091EA02B09107
:1048C000EB022FBF08959C014FB7F8948091E80246
:1048D0009091E902A091EA02B091EB024FBF821BD6
:1048E000930B089578941F921FB61F9211248F93F3
:1048F0009F93AF93BF938091E8029091E902A091BA
:10490000EA02B091EB020196A11DB11D8093E8026D
:104910009093E902A093EA02B093EB02BF91AF91AA
:104920009F918F911F901FBE1F90189581E08093DB
:10493000E00080E28093D8001092C9008FE19EE4ED
:104940000197F1F700C0000087E090EBDC01809355
:10495000FB029093FC02A093FD02B093FE0288E15B
:104960009CE00FB6F894A895809360000FBE9093DA
:104970006000FFCFAF92BF92CF92DF92EF92FF9293
:104980000F931F93CF93C0E0CC24C394D12CE82E77
:10499000F12C8C2F0E942A0A5C0110E000E0C60175
:1049A000002E02C0880F991F0A94E2F78A219B21EA
:1049B000892B99F40F5F1F4F0C30110581F7CF5FE2
:1049C000C43039F780E0CF911F910F91FF90EF90A5
:1049D000DF90CF90BF90AF900895602F7C2F80E044
:1049E0000E941908E816F90629F781E0ECCFCF9369
:1049F000C82F8CE20E94BA24882321F08C2FCF91FB
:104A00000C94BA2480E0CF910895CF930E942C2279
:104A1000811102C00E94D32284E599E00E94210600
:104A2000C5E6C15009F0E7C08DE499E00E94210677
:104A300089E20E94F72481110AC18AE20E94F724C8
:104A400081110E94D32285E00E94F72481110E94E7
:104A500096240E9437228093760287E00E94F724F2
:104A6000882371F08BE10E94F724882309F4CCC0DD
:104A700090917602892F8D7F91FF826080937602DC
:104A8000809176020E943B220E9449229093ED027F
:104A90008093EC0280EE0E94F724882341F09091ED
:104AA000EC02892F8E7F90FF81608093EC0289E376
:104AB0000E94F724882341F09091EC02892F8D7F8A
:104AC00091FF82608093EC0282EE0E94F72488239B
:104AD00041F09091EC02892F8B7F92FF846080934C
:104AE000EC0286EE0E94F724882341F09091EC02BC
:104AF000892F877F93FF88608093EC0283EE0E946A
:104B0000F724882341F09091EC02892F8F7E94FF47
:104B100080618093EC0285E30E94F724882341F0B2
:104B20009091EC02892F8F7D95FF80628093EC023B
:104B300081E30E94F724882341F09091EC02892FB1
:104B40008F7B96FF80648093EC0281E10E94F724C2
:104B5000882341F09091EC02892F97FB87F98058C8
:104B60008093EC028091EC029091ED020E9457221A
:104B700087E20E94F724C82F8EE10E94F72481115A
:104B8000C2608FE10E94F7248111C46080E20E941C
:104B9000F7248111C86081E20E94F7248111C0616D
:104BA00082E20E94F7248111C06283E20E94F7240E
:104BB0008111C06484E20E94F724882309F441C073
:104BC000C0688C2F0E9444226C2F70E090E080E03F
:104BD0000E94691F8FE00E94F724882319F081E06A
:104BE0000E94D52285E10E94F724882381F180E08C
:104BF000CF910C94D5220E94DF0A8FE39CE90197A4
:104C0000F1F700C000000DCF8EE00E94F72488234A
:104C100039F090917602892F8B7F92FF84602ECF9E
:104C200080E10E94F72490917602882329F0892F51
:104C3000877F93FF886022CF892F8E7F90FF8160CE
:104C40001DCFC111BECF0E944022682FBECFCF9191
:104C500008958091810280FF12C06091190185E062
:104C6000689FB001112475956795759567956038B3
:104C70007105A8F561157105A1F1862F089581FFD1
:104C800009C06091190185E0689FB00111247595F4
:104C90006795EDCF6091190182FD0AC08091800275
:104CA0008823D1F09091180160911901891728F09B
:104CB00085E0689FB0011124DACF869FB0011124EE
:104CC00085E0869F9001879F300D1124692F70E049
:104CD000C9010E942031CBCF65E070E0CECF8FE7D5
:104CE000089581E008958091810280FF0CC0609159
:104CF000150170E075956795759567956115710556
:104D000049F1862F089581FF06C06091150170E07A
:104D100075956795F3CF6091150182FD0BC0909159
:104D200080029923A1F060911401809115019617DA
:104D300038F0682F70E06038710500F38FE7089550
:104D4000899FC001112470E00E942031F4CF61E0FE
:104D500070E0D7CF81E00895803F31F40E9429268A
:104D60008195809385020895813F19F40E94292638
:104D7000F8CF823F31F40E942926819580938402E6
:104D80000895833F19F40E942926F8CF893F29F41A
:104D90000E9473268093860208958A3F21F40E9420
:104DA00073268195F7CF8B3F31F40E94732681954E
:104DB0008093870208958C3F19F40E947326F8CFE0
:104DC000843F31F48091830281608093830208954F
:104DD000853F21F4809183028260F7CF863F21F4E2
:104DE000809183028460F1CF873F21F48091830218
:104DF0008860EBCF883F21F4809183028061E5CF0A
:104E00008D3F31F480918102816080938102089509
:104E10008E3F21F4809181028260F7CF8F3FB9F7F6
:104E2000809181028460F1CF90918402803F41F4AF
:104E30008091850287FD10928502992371F0089573
:104E4000813F29F4809185021816ACF3F6CF823F9A
:104E500081F497FFF2CF10928402809185029091A5
:104E60008602892B90918702892B49F71092800244
:104E70000895833F19F4191674F3DFCF893F39F48D
:104E8000809186021816CCF610928602D6CF8A3F01
:104E900029F48091860287FFD0CFF6CF8B3F39F47B
:104EA0008091870287FFC9CF10928702C6CF8C3FBF
:104EB00029F4809187021816BCF3BFCF843F31F4E8
:104EC000809183028E7F80938302B7CF853F21F448
:104ED000809183028D7FF7CF863F21F480918302FA
:104EE0008B7FF1CF873F21F480918302877FEBCFC7
:104EF000883F21F4809183028F7EE5CF8D3F31F48E
:104F0000809181028E7F8093810297CF8E3F21F422
:104F1000809181028D7FF7CF8F3F09F08ECF8091F6
:104F200081028B7FF0CF8091760283FF7EC080E983
:104F300099E00E942106809183021F928F938BE853
:104F400099E09F938F930E94BA0689E899E00E94A6
:104F5000210680918402282F082E000C330B3F93EA
:104F60008F9386E899E09F938F930E94BA0684E816
:104F700099E00E94210680918502282F082E000CBE
:104F8000330B3F938F9381E899E09F938F930E9417
:104F9000BA068FE799E00E94210680918602282FA9
:104FA000082E000C330B3F938F938CE799E09F936F
:104FB0008F930E94BA068AE799E00E9421068091A9
:104FC0008702282F082E000C330B3F938F9387E71F
:104FD00099E09F938F930E94BA0684E799E00E941C
:104FE0002106809180021F928F9381E799E09F9321
:104FF0008F930E94BA068FE699E00E942106809165
:1050000081021F928F938CE699E09F938F930E9469
:10501000BA0689E699E00E9421068DB79EB74C96A4
:105020000FB6F8949EBF0FBE8DBF82E892E00E943B
:105030002A170E94572490937F0280937E0208953E
:10504000CF93DF9300D000D000D0CDB7DEB786E09D
:10505000E2E8F2E0DE01119601900D928A95E1F707
:105060008091840290918502892B81F080917C024D
:1050700090917D020E946324AC019091800299235B
:1050800031F180911A018417150670F18091860222
:1050900090918702892B91F080917A0290917B0206
:1050A0000E946324AC0190918002992309F478C096
:1050B000809116018417150608F480C026960FB655
:1050C000F894DEBF0FBECDBFDF91CF910895209140
:1050D0001B018AE0289F9001112424173507B0F6A0
:1050E0009F5F9093800202C09F3FD1F7109286028B
:1050F0001092870280918402181624F40E942926B7
:10510000809384028091840287FF05C00E94292633
:1051100081958093840280918502181624F40E9460
:105120002926809385028091850287FF05C00E9411
:105130002926819580938502309184023323A1F042
:1051400020918502222381F045EB3403C001112414
:105150009923F1F09093840245EB240390011124EC
:105160003323D1F0309385020E94932780917E02F1
:1051700090917F0290937D0280937C0286E0FE01F5
:105180003196A2E8B2E001900D928A95E1F77ECFC8
:1051900081E080938402E0CF81E080938502E4CFB8
:1051A000209117018AE0289F9001112424173507C8
:1051B00008F084CF9F5F9093800202C09F3FD1F799
:1051C000109284021092850280918602181624F4AF
:1051D0000E947326809386028091860287FF05C015
:1051E0000E9473268195809386028091870218160B
:1051F00024F40E947326809387028091870287FFA0
:1052000005C00E94732681958093870230918602A3
:105210003323A1F020918702222381F045EB340350
:10522000C00111249923F1F09093860245EB2403E9
:10523000900111243323D1F0309387020E949327E9
:1052400080917E0290917F0290937B0280937A02FC
:1052500086E0FE013196A2E8B2E001900D928A95B7
:10526000E1F72CCF81E080938602E0CF81E080934C
:105270008702E4CF86E0E2E8F2E0DF011D928A9542
:10528000E9F7109280021092810208958091AB029A
:1052900008959FB7F89410928A029FBF9091F202EE
:1052A000943009F048C02091E9002F703091EC0053
:1052B000932F917030FD90E8922B23E02093E9002A
:1052C0002091EB0020FF34C02091EE0027FF30C07A
:1052D00020918802222321F02091E80025FF28C098
:1052E0001092880226E03091E80035FF14C08093C8
:1052F000F1008091E80085FD27C08091E80080FFE3
:10530000FCCF8091E8008E778093E8009F709093A7
:10531000E90080E008953091F202343049F4309190
:10532000EB0035FD05C0215041F481E080938802F7
:105330009F709093E9008FEF0895EFE9FFE03197B8
:10534000F1F700C00000CFCF8FB7F89421E0209391
:105350008A028FBFDBCFCF93DF9300D00F92CDB700
:10536000DEB79091F202943019F589837B836A83CA
:1053700082E08093E9008FEF9091E800815095FDE5
:1053800006C095ED9A95F1F700008111F5CF809157
:10539000E80085FF0DC050E040E063E070E0CE0122
:1053A00001960E94622C8091E8008E778093E8003D
:1053B0000F900F900F90DF91CF910895CF93DF93CF
:1053C000EC010E94452C823011F0843031F4BE0192
:1053D00084E0DF91CF910C94AB29DF91CF910895B8
:1053E000BC0183E00C94AB29CF93DF93EC010E94C6
:1053F000452C823011F08430F9F482E08093E9008A
:105400008FEF9091E800815095FD06C095ED9A953B
:10541000F1F700008111F5CF8091E80085FF0CC005
:1054200050E040E066E070E0CE010E94622C809186
:10543000E8008E778093E800DF91CF910895CF93B5
:10544000DF93EC010E94452C823011F08430B9F5D5
:10545000809126018823B1F18091EC0287FF32C050
:1054600060E282E08093E9008FEF9091E800815044
:1054700095FD06C095ED9A95F1F700008111F5CFE5
:105480008091E80085FF1BC08091260170E050E00C
:1054900040E0811104C050E040E068E070E0CE01DF
:1054A0000E94622C8091E8008E778093E80080E271
:1054B000FE01ABE8B2E001900D928A95E1F7DF9131
:1054C000CF91089568E081E0CDCF88ED99E00E940A
:1054D00021068091F102811109C00E94F22D0E94E3
:1054E0004F2E8091E20084608093E200089584ED65
:1054F00099E00E9421061092F102089580ED99E052
:105500000C9421068CEC99E00C94210688EC99E02F
:105510000E9421060C941624209189022F5F822F6D
:1055200062E30E94F230992319F0209389020895D2
:105530001092890280918A028823F1F08091F20210
:105540008430C1F49091E9009F702091EC00822F8B
:10555000817020FD80E8892B93E09093E900909181
:10556000EB0090FF04C09091EE0097FD08C08F7093
:105570008093E90010928A0208951092F1009091B0
:10558000E80095FDFACF9091E80090FFF0CF909160
:10559000E8009E779093E800EACF42E061EC81E07A
:1055A0000E946E2D42E261EC82E00E946E2D42E28A
:1055B00061EC83E00C946E2D8091F402833009F449
:1055C0005FC030F48130C1F1823009F49BC008958E
:1055D0008A3009F487C08B3009F46DC0893009F036
:1055E0004EC08091F302813209F049C08091F702E8
:1055F0009091F802029708F042C08091E800877FFE
:105600008093E8008091E80082FF35C09091F3001C
:105610008091F200029729F48091F1008B7F813014
:1056200021F48091F1008093AB028091E8008B77A8
:105630008093E8000C94A22D8091F302813AF9F452
:105640008091E800877F8093E8008091F702909135
:10565000F802892B61F460E28BE892E070E00E942E
:10566000B12C8091E8008B778093E800089560E08A
:1056700090E080E0F3CF8091F2028111C3CF0895D2
:105680008091F302813AD9F78091F7029091F80264
:10569000892BA9F78091E800877F8093E8008091AB
:1056A000E80080FFFCCF809126018093F10080917B
:1056B000E8008E77BDCF8091F302813201F78091AF
:1056C000F7029091F802892BD1F68091E800877F4C
:1056D0008093E8000E94A22D8091F502809326011C
:1056E0000C94D11B8091F302813249F68091E8003D
:1056F000877F8093E8000E94A22D8091F60280931C
:10570000AC0208958091F302813A09F0B8CF8091FC
:10571000E800877F8093E8008091E80080FFFCCF5D
:105720008091AC02C2CF84B7877F84BF0FB6F89454
:10573000A89580916000886180936000109260005D
:105740000FBE80E890E00FB6F894809361009093CC
:1057500061000FBE0E9472170E94F22D0E944F2E10
:105760008091E20084608093E20089E499E20E94E3
:10577000022278940E94D7300E947A178CE191E03F
:105780000E94BE1687EB99E00E9421068091F202EA
:10579000853019F00E94AC17F9CF83EB99E00E9495
:1057A00021060E94BC238091F002882379F30E9495
:1057B000FE23882359F30E944C2CE8CF0C94E02B55
:1057C000292F33272330310521F168F421303105A9
:1057D00009F449C02230310509F44AC090E080E064
:1057E00030E020E029C02132310581F1223231053B
:1057F000A9F76330710590F7FB01EE0FFF1FEF5320
:10580000FE4F2081318162547E4FFB01808190E008
:1058100013C099278130910599F0009741F08230AB
:10582000910589F00397D1F6ECEDF9E002C0E8E0CC
:10583000FAE0849190E09F01FA013183208308957A
:10584000E0EFF9E0F6CFE2EEF9E0F3CF6330710577
:1058500028F6660F771FFB01E953FE4F2081318147
:1058600089E090E0E9CF82E190E027E63AE0E4CFFA
:105870008BE590E02CE03AE0DFCF8091F2028430BB
:1058800011F482E0089581E008958091AD028111C4
:1058900002C00C943D2C089580E189BD82E189BD50
:1058A00009B400FEFDCF8091D8008F7D8093D80091
:1058B0008091E00082608093E0008091E00081FDB3
:1058C000FCCF0895AF92BF92CF92DF92FF920F93D9
:1058D0001F93CF93DF936C01EB018A010E94C12DCE
:1058E000F82E811123C00115110539F0F8018081CE
:1058F0009181C81BD90BC80ED91EB12CA12C2097A1
:10590000A9F08091E80085FD22C08091E8008E77A3
:105910008093E80001151105A1F0F80180819181C3
:10592000A80EB91EB182A08285E0F82E8F2DDF91DE
:10593000CF911F910F91FF90DF90CF90BF90AF90CC
:1059400008950E94C12D8823D1F2F82EEFCFF601E1
:1059500081916F018093F1002197FFEFAF1ABF0A89
:10596000CECFFC018091F9029091FA028617970739
:10597000A0F06115710529F49091E8009E7790934D
:10598000E80090E06115710551F4911108C0809113
:10599000E80082FF34C080E00895BC01F2CF80911E
:1059A000F2028823C1F18530C1F18091E80083FDC6
:1059B00030C08091E80082FDEACF8091E80080FF4E
:1059C000E1CF8091F3002091F200382F611571052D
:1059D00019F02830310558F091E02830310509F0F0
:1059E00090E02091E8002E772093E800CBCF8191C2
:1059F0008093F100615071092F5F3F4FE7CF809195
:105A0000F202882341F0853041F08091E80083FF65
:105A1000BECF81E0089582E0089583E00895FC01FF
:105A20008091F9029091FA0286179707A0F061150C
:105A3000710529F48091E8008E778093E80090E06A
:105A40006115710551F4911108C08091E80082FF41
:105A500035C080E00895BC01F2CF8091F202882326
:105A6000C9F18530C9F18091E80083FD31C0809192
:105A7000E80082FDEACF8091E80080FFE1CF8091CD
:105A8000F3002091F200382F6115710519F02830CC
:105A9000310558F091E02830310509F090E080910F
:105AA000E8008E778093E800CBCF84918093F1005B
:105AB0003196615071092F5F3F4FE6CF8091F2021E
:105AC000882341F0853041F08091E80083FFBDCF0D
:105AD00081E0089582E0089583E00895982F97303B
